:020000040800F2
:100000000020002091440008CD430008CF430008A1
:1000100000000000000000000000000000000000E0
:10002000000000000000000000000000D1430008B4
:100030000000000000000000D3430008D543000882
:10004000E1440008E1440008E1440008E1440008FC
:10005000E1440008DD430008E1440008E7430008EC
:10006000E1440008E144000805440008E1440008B8
:10007000E1440008E14400080000000015440008C5
:1000800000000000E1440008000000000000000043
:10009000E144000800000000E1440008E1440008D9
:1000A000E1440008E1440008E14400082544000858
:1000B000E1440008E1440008E1440008E14400088C
:1000C00010B5064C2378002B07D1054B002B02D02E
:1000D000044800E000BF0123237010BD6805002024
:1000E0000000000078450008044B10B5002B03D039
:1000F0000349044800E000BF10BDC04600000000F6
:100100006C0500207845000802780B78002A03D09F
:10011000013001319A42F7D0D01A704702B47146CB
:1001200049084900095C49008E4402BC7047C0463A
:10013000002243088B4274D303098B425FD3030A26
:100140008B4244D3030B8B4228D3030C8B420DD339
:10015000FF22090212BA030C8B4202D312120902C7
:1001600065D0030B8B4219D300E0090AC30B8B4205
:1001700001D3CB03C01A5241830B8B4201D38B03B3
:10018000C01A5241430B8B4201D34B03C01A524158
:10019000030B8B4201D30B03C01A5241C30A8B429B
:1001A00001D3CB02C01A5241830A8B4201D38B0286
:1001B000C01A5241430A8B4201D34B02C01A52412A
:1001C000030A8B4201D30B02C01A5241CDD2C3099C
:1001D0008B4201D3CB01C01A524183098B4201D318
:1001E0008B01C01A524143098B4201D34B01C01A03
:1001F000524103098B4201D30B01C01A5241C3087B
:100200008B4201D3CB00C01A524183088B4201D3E9
:100210008B00C01A524143088B4201D34B00C01AD5
:100220005241411A00D20146524110467047FFE741
:1002300001B5002000F0F0F802BDC0460029F7D05B
:1002400076E7704703460B437FD4002243088B4276
:1002500074D303098B425FD3030A8B4244D3030B4D
:100260008B4228D3030C8B420DD3FF22090212BA12
:10027000030C8B4202D31212090265D0030B8B428E
:1002800019D300E0090AC30B8B4201D3CB03C01A78
:100290005241830B8B4201D38B03C01A5241430B53
:1002A0008B4201D34B03C01A5241030B8B4201D343
:1002B0000B03C01A5241C30A8B4201D3CB02C01AAE
:1002C0005241830A8B4201D38B02C01A5241430A26
:1002D0008B4201D34B02C01A5241030A8B4201D315
:1002E0000B02C01A5241CDD2C3098B4201D3CB01BC
:1002F000C01A524183098B4201D38B01C01A52416B
:1003000043098B4201D34B01C01A524103098B426E
:1003100001D30B01C01A5241C3088B4201D3CB0059
:10032000C01A524183088B4201D38B00C01A52413C
:1003300043088B4201D34B00C01A5241411A00D2EC
:1003400001465241104670475DE0CA0F00D0494255
:10035000031000D34042534000229C4603098B42C5
:100360002DD3030A8B4212D3FC22890112BA030A4D
:100370008B420CD3890192118B4208D389019211CF
:100380008B4204D389013AD0921100E08909C30954
:100390008B4201D3CB01C01A524183098B4201D356
:1003A0008B01C01A524143098B4201D34B01C01A41
:1003B000524103098B4201D30B01C01A5241C308B9
:1003C0008B4201D3CB00C01A524183088B4201D328
:1003D0008B00C01A5241D9D243088B4201D34B0043
:1003E000C01A5241411A00D20146634652415B1085
:1003F000104601D34042002B00D549427047634666
:100400005B1000D3404201B5002000F005F802BDAA
:100410000029F8D016E770477047C046002B11D16D
:10042000002A0FD1002900D1002802D00021C943A1
:10043000081C07B4024802A14018029003BDC04640
:10044000D9FFFFFF03B4684601B5029800F006F833
:10045000019B9E4602B00CBC7047C046F0B55746A3
:100460004E464546DE46E0B5040083B00D00924698
:1004700099468B422FD82CD04946504600F0AEF812
:1004800029000600200000F0A9F8331A9846203B06
:100490009B4600D574E053465A4693401F0053468E
:1004A000424693401E00AF4229D826D05B46A41B8B
:1004B000BD41002B00DA79E0002200230092019375
:1004C00001235A46934001930123424693400093EF
:1004D00019E08242D0D900220023009201930C9BA4
:1004E000002B01D01C605D600098019903B03CBCFA
:1004F00090469946A246AB46F0BDA342D6D900220B
:100500000023009201934346002BE8D0FB077208BA
:100510001A4346467B080EE0AB4201D1A2420CD8FA
:10052000A41A9D41012024196D410021013E241887
:100530004D41002E06D0AB42EED9013E24196D414B
:10054000002EF8D15B460098019900196941002BF3
:1005500022DB2B005A46D3402A004446E2401C00CE
:100560005B461500002B2CDB26009E403300260046
:100570004746BE403200801A994100900191AEE793
:10058000424620239B1A5246DA40414613004A460F
:100590008A4017001F4382E7424620239B1A2A0005
:1005A00046469A402300F3401343D5E742462023B2
:1005B00000219B1A0022009101920122DA4001924F
:1005C00082E74246202326009B1ADE402F00B446D5
:1005D000974066463B003343C9E7C04610B5002943
:1005E00003D100F007F8203002E0081C00F002F808
:1005F00010BDC0461C2101231B04984201D3000CEE
:1006000010391B0A984201D3000A08391B09984285
:1006100001D30009043902A2105C40187047C0469B
:1006200004030202010101010000000000000000BB
:10063000FA210A4B70B5890005001868FFF778FDAC
:1006400000F07AF804000120002C05D102382200C5
:10065000290000F037F8200070BDC0466405002076
:100660004023084A10B5116800200B431360FFF7C0
:10067000DFFF041E03D103F0BBFD200010BD0124E9
:10068000FBE7C04600200240024A136801331360B2
:100690007047C04628060020014B18687047C046C6
:1006A0002806002070B50400FFF7F6FF631C5A1EF1
:1006B00093410500E418FFF7EFFF401B8442FAD88E
:1006C00070BD000070B58901002814DA0F23C0B294
:1006D0000340083B114A9B089B009B1803221040D3
:1006E0009040FC321500114085408140DC69AC43EC
:1006F0002143D96170BD032583082840A840FC35FB
:100700002E00074A9B009B18C0228640294081404A
:1007100092009C58B44321439950EBE700ED00E070
:1007200000E100E01F2318401E3B8340014A136094
:100730007047C04600E100E0094A431E0120934291
:100740000DD8C021074A08485360036A09061B02F6
:100750001B0A0B430362002007239060136070475D
:10076000FFFFFF0010E000E000ED00E0F8B504003E
:100770000120002C35D025681A4B1421E818FFF70A
:10078000D7FC194B800023640223A21D6064D37739
:100790002E68164BA1681E40E36827690B433B4354
:1007A00067693B43A7693B43E7693B43276A3B4390
:1007B00033432B608023DB0199420CD01C25284059
:1007C0000D3D85400A490B68AB430B6063680D68BB
:1007D00083402B430B6000200123E0630534D37773
:1007E000E077F8BDF8FFFDBF000002400F80FFFF7B
:1007F000A8000240F7B5461DF57F0224012D2AD03E
:100800000125F577851DAC46ED7F0027EDB2012D62
:100810002DD16646F4770468C76326681C37AE435B
:100820002660066C0196466C3740BD40019E75609F
:10083000636083680568102B0FD1A260E160036BD1
:10084000002B0DD00E2322681343236001230024C4
:100850002A6813432B602000FEBDA160E260EEE732
:10086000042223689343236022680A23ECE7F77786
:10087000F1E770B5841DE37F022B04D00423C3632A
:10088000033B180070BD0E210368456C1A688A434B
:100890001A6001221968914319601C232B4015002E
:1008A0009D40016C431D4D60E2770024826BDC7734
:1008B0001300A242E5D090472300E2E7F8B51C22DE
:1008C0000427466C016C32403E0096400D68036878
:1008D0001C682E420DD03C420BD01A68920602D4FE
:1008E0001A68BA431A60036B4E60002B19D0984700
:1008F00017E002273E0096402E4213D03C4211D012
:100900001A68920606D40A241A68A2431A600122C1
:10091000831DDA770022431D4E60DA77C36A934263
:10092000E5D1F8BD0826370097403D42F9D0344262
:10093000F7D00E251C68AC431C6001231C009440BA
:10094000821D4C60C363D3770022431DDA77436B6B
:10095000E5E70000F0B5534A0B688218541EA24127
:1009600085B00193002305320392019ADA4001D148
:1009700005B0F0BD01259D40019A2A40009200D1AA
:100980008DE04A6894461022644694432200013C5C
:10099000022A1FD107240F271C40A400A740DA0811
:1009A00092008218166ABE430F69A7403E43166242
:1009B00003245E00B4408268A243CC68B440224362
:1009C00082606246D206D20F9A404468AC4322430A
:1009D000426001E0012CEBD9032634005D00AC40FD
:1009E0006246E4433240AA40076827403A43026027
:1009F000C26814408A68AA4014436246C460D200A8
:100A00004DD50125284C0F27626B2A431D00354028
:100A1000AD00AF406263254A9C08A400A418A268F8
:100A2000BA43A0270292FF050022B8420CD0204F03
:100A30000132B84208D01F4F0132B84204D01E4FD5
:100A40003200B84200D0039AAA406746029D2A436A
:100A5000A2601A4A009C1668009DE4433543FF03D8
:100A600001D435002540674615605668009D354322
:100A7000BF0301D435002540674655609668009D48
:100A80003543FF0201D43500254067469560D5689F
:100A9000009E2E43BF0201D425402E00D6600133B4
:100AA00063E7C04600E4FFAF0010024000000140D1
:100AB0000004005000080050000C005000040140E9
:100AC00000690840411E8841C0B27047002A01D029
:100AD000816170478162FCE7044B10B55A6910428E
:100AE00002D0586102F086FF10BDC04600040140EC
:100AF00003689A69920701D500229A6201229969D6
:100B0000114202D199690A439A61704770B5049EF7
:100B100089053343890D194380230468DB00700D78
:100B20001840044B65681204184385431143294358
:100B3000616070BDFF63FF03F8B504000E0017008D
:100B40001D002268936933409B1B59424B41BB42B5
:100B500001D0002017E06B1CF4D0FFF79DFD069B31
:100B6000C01A854201D3002DEBD12022636C0120F5
:100B700013436364230041331A702200002342327E
:100B8000403413702370F8BDF8B503680400986909
:100B900010230E00170018402025002818D1F8BD9A
:100BA000721C16D0FFF778FDC01B864201D3002EC1
:100BB0000ED12022636C13436364230041331A7007
:100BC0002200002342324034137001202370E6E7F4
:100BD00023689A692A42E3D010222000DA61DD619D
:100BE000FFF786FF2268064953680B4053600423D1
:100BF000626C13436364230041331D70E0E7C04619
:100C000000E800FEF8B504000D0016000227236876
:100C10009B693B4201D00020F8BD32002900200032
:100C2000FFF7B2FF002815D16B1CF0D0FFF734FDA1
:100C3000801B854201D3002DE9D12022636C134330
:100C40006364230041331A7022000023423240348F
:100C5000137023700120DFE7F8B504000D001600C3
:100C6000202723689B693B4201D00020F8BD320059
:100C700029002000FFF788FF002813D1FFF70CFDA3
:100C8000801B854201D3002DEBD12022636C1343DE
:100C90006364230041331A7022000023423240343F
:100CA000137023700120E1E7F8B504000D00170070
:100CB000042623689B69334211D13A0029002000A1
:100CC000FFF762FF00281AD1202123689A690A429F
:100CD00017D09A69324204D0228D002A01D0002018
:100CE000F8BD2021D9615A680E4802405A6022009E
:100CF000002341326364117040345370237001202B
:100D0000EEE7FFF7C9FCC01B854201D3002DD0D10F
:100D10002022636C13436364230041331A70403410
:100D20000023EBE700E800FE70B504000120002C72
:100D30003FD0250041352B78DBB2002B05D12200B6
:100D400040321370200003F061FA242301212B703C
:100D50002368E0681A68A6688A431A6061681A4ABC
:100D60000A401A619968194A11409960012821D1F5
:100D7000802109023143996058681549014359603F
:100D8000D96800200A40DA60616922690A43A169D2
:100D900009020A43DA60216AE2690A431A60012201
:100DA00019680A431A60202360642B702063423460
:100DB000207070BD84210902314399600228DBD183
:100DC000802109015960D7E7FFFFFFF0FF7FFFFF98
:100DD00000800002F0B5050087B0039104920593EE
:100DE00041352B7804000220202B14D123004033FE
:100DF0001A78012A0FD001261E70FFF74DFC8021C2
:100E0000070000901923320009022000FFF794FE2A
:100E1000002802D0012007B0F0BD21232B7025004F
:100E2000113B42352B70049B606463626B469B8A66
:100E300060636385628D304BFF2A21D9FF222285B2
:100E4000009380235B0403992000FFF75FFEFF26D9
:100E5000638D3A000C992000002B19D1FFF7FCFE9E
:100E60000028D7D120212368244ED9615A68324006
:100E70005A60230040344133197028702070CAE74B
:100E8000628D92B2228500938023D2B29B04DAE76E
:100E9000FFF7B8FE0028BDD1636A226819780133D4
:100EA00091626362638D228D013B9BB26385013A3F
:100EB000638D92B22285002BCAD0002AC8D1009738
:100EC0000C9B80212000FFF737FE0028A2D1638D04
:100ED000FF2B09D98023FF2226855B04009003990C
:100EE0002000FFF713FEB3E78023628D9B0492B2CC
:100EF0002285D2B20090F2E70020008000E800FED8
:100F0000F0B5050087B003910492059341352B7825
:100F100004000220202B14D1230040331A78012A28
:100F20000FD001261E70FFF7B7FB8021070000904D
:100F30001923320009022000FFF7FEFD002802D02D
:100F4000012007B0F0BD22232B702500123B423553
:100F50002B70049B606463626B469B8A606363854D
:100F6000628D314BFF2A21D9FF22228500938023F5
:100F70005B0403992000FFF7C9FDFF26638D3A004B
:100F80000C992000002B19D1FFF766FE0028D7D15D
:100F900020212368254ED9615A6832405A602300C7
:100FA00040344133197028702070CAE7628D92B2C4
:100FB000228500938023D2B29B04DAE7FFF774FE08
:100FC0000028BDD12368626A5B6A1370636A228D50
:100FD00001336362638D013A013B9BB26385638D8C
:100FE00092B22285002BC9D0002AC7D100970C9B52
:100FF00080212000FFF7A0FD0028A1D1638DFF2BE9
:1010000009D98023FF2226855B04009003992000E4
:10101000FFF77CFDB2E78023628D9B0492B22285AC
:10102000D2B20090F2E7C0460024008000E800FE43
:10103000F0B50400413422780300D2B20220202A05
:1010400018D11D0040352E78012E13D01B68223098
:1010500020701E68233886431E601E68064F3E407F
:101060001E601E683143196019680843186000202B
:1010700022702870F0BDC046FFEFFFFFF0B50500FD
:1010800041352A780300D2B20220202A17D11C0051
:1010900040342678012E12D01B68223028701E683A
:1010A000233886431E601E68054F09023E403143C7
:1010B000196019680843186000202A702070F0BD7C
:1010C000FFF0FFFF0C22184B10B5D9680A40082A20
:1010D00026D00C2A06D0042A1AD11B68DB0621D49C
:1010E000124810BD8A021248120F825C0902D868A9
:1010F000890F0131C00304D50E485043FFF718F89B
:10110000EFE71B68DB0601D50B48F6E70748F4E775
:1011100080205B6800021B045B0F01339840E0E70E
:101120000448DEE70448DCE7001002400024F40035
:101130006646000800127A0000093D00F0B505007F
:1011400087B0002802D1012007B0F0BD0C23BE4CAF
:10115000E668E2681E4080235B021A400192026842
:10116000D20741D42B689B0700D587E02B68DB06AC
:1011700028D5002E00D0D9E023689B0502D5EB6965
:10118000002BE0D06268B1496B6A0A401A43626082
:1011900061682A6A0902090A12060A43626080220B
:1011A0005B0B013312029A401300E16800200A062B
:1011B000A749120F8A5CD340A64A1360FFF738FA9A
:1011C0000028C1D12B681B0700D5E6E02B685B0720
:1011D00000D508E12B689B0600D58DE1AB6A002B9A
:1011E00000D0BCE10020AFE7082E04D00C2E09D1BE
:1011F000019A002A06D023689B03B3D56B68002BA5
:10120000B0D1A0E76A689A4211D1226813432360E3
:10121000FFF742FA07008022236892021342A1D10D
:10122000FFF73AFAC01B6428F5D903208CE7A02108
:10123000C9028A4205D180222168D2020A43226073
:10124000E3E7216884480140216021680B40059351
:10125000059B824923680B402360002AD8D1FFF701
:101260001BFA0700802223689202134200D179E71B
:10127000FFF712FAC01B6428F4D9D6E7EA68042EF7
:1012800004D00C2E25D1019B002B22D123685B07B3
:1012900002D5002A00D156E761682B6970481B020D
:1012A00001400B430921636023688B431343236090
:1012B000FFF708FFE368664A1B061B0FD35CD840A4
:1012C000644B18600020FFF7B3F9002800D14DE708
:1012D0003AE72368002A18D009218B43134323607F
:1012E000FFF7DAF9070004222368134207D0626887
:1012F0002B695B491B020A401343636036E7FFF723
:10130000CBF9C01B0228EED98FE70122934323605B
:10131000FFF7C2F9070004222368134200D125E732
:10132000FFF7BAF9C01B0228F5D97EE7EB69002B5D
:1013300020D0802322685B0013432360FFF7ACF9C1
:10134000070080222368920013420DD063683F4A51
:1013500013406A6A1343636062682B6A12021B06B9
:10136000120A134363602DE7FFF796F9C01B0228AA
:10137000E7D95AE723683B4A13402360FFF78CF90B
:101380000700802223689200134200D11AE7FFF77A
:1013900083F9C01B0228F4D947E76A690123002AB0
:1013A00010D0226D13432365FFF776F90700022260
:1013B000236D134200D009E7FFF76EF9C01B022826
:1013C000F5D932E7226D9A432265FFF765F90700E8
:1013D0000222236D134200D1F8E6FFF75DF9C01B2E
:1013E0000228F5D921E780230021A26B5B0501913A
:1013F0001A4204D1A26B1343A363012301938022F9
:10140000194F52003B68134208D08022AB6852004B
:1014100093422BD1226D134323654CE080223B681D
:10142000520013433B60FFF737F980235B000290C3
:1014300003933B68039A1342E7D1FFF72DF9029B10
:10144000C01A6428F5D9F0E600100240FF1FFFFF24
:101450004E46000864050020FFFFFEFFFFFFFBFF74
:10146000FFE0FFFFFFFEFFFF00700040002B16D1E2
:10147000236D6C4A13402365236D6B4A134023652B
:10148000FFF70AF907008022236D920013422AD049
:10149000FFF702F9654BC01B9842F4D9C5E6A021BD
:1014A000C9008B420BD18023216DDB000B432365E8
:1014B000236D1A432265FFF7EFF807000EE0236D56
:1014C000584A13402365236D574A1340A4E7FFF79A
:1014D000E3F8564BC01B984200D9A6E68022236D44
:1014E00092001342F3D0019B012B00D072E6A36B54
:1014F0004F4A1340A3636DE6A96901234D4A0029B1
:1015000018D0A1681943A160616B0B43636380230A
:10151000116A9B010B431362FFF7BEF8070002221A
:10152000A368134200D059E6FFF7B6F8C01B0228A3
:10153000F5D97AE6A1689943A160136A3E490B4048
:101540001362FFF7A9F807000222A368134200D133
:1015500044E6FFF7A1F8C01B0228F5D965E60C2E7A
:1015600043D0364A022B2ED12368802613402360B5
:10157000FFF792F80700B604236833421DD1296BA8
:10158000EB6AE2680B432E490A4013436A6B8025DD
:101590001343E360802322685B0413432360FFF757
:1015A0007BF80600AD0423682B4200D01AE6FFF753
:1015B00073F8801B0228F6D937E6FFF76DF8C01BD9
:1015C0000228D9D931E62368802513402360FFF72C
:1015D00063F80600AD0423682B4200D102E6FFF752
:1015E0005BF8801B0228F6D91FE61800012B00D1FA
:1015F000AAE58022E368E96A52021A4001208A4281
:1016000000D0A1E5F022296B92031A408A4200D053
:101610009AE5C02000040340686B181A431E9841E5
:10162000C0B291E5FFFEFFFFFFFBFFFF8813000044
:10163000FFFFFFEF00000140FFDFFFFFFFFFFFFEA6
:10164000FFFF02FFF7B5061E019101D10120FEBD8B
:101650000122514C0199236813408B4227D33268F1
:1016600093072FD4D30735D40123226801991A4058
:10167000914200D281E03268484C530700D584E0A3
:10168000130706D5E26833694549DB000A40134376
:10169000E360FFF717FDE368424A1B061B0FD35CAC
:1016A000D840414B18600020FEF7C2FFCFE7236807
:1016B000019993430B43236023681340019A9A4294
:1016C000C4D1CCE7F0203549CB688343B0680343ED
:1016D000CB60C7E7314D72682B68022A19D19B0392
:1016E000B4D50321EB688B431343EB60FEF7D4FFC3
:1016F00073680700022B19D10C22EB681340082BEA
:10170000B2D0FEF7C9FF294BC01B9842F4D9032081
:101710009DE7032A02D19B01E3D497E7012A02D176
:101720005B07DED492E79B05DBD48FE7032B0BD15D
:101730000C22EB681340934296D0FEF7ADFF1B4B93
:10174000C01B9842F4D9E2E7012B10D00C22EB68C1
:10175000134289D0FEF7A0FF144BC01B9842F5D965
:10176000D5E7FEF799FF114BC01B9842CFD80C224A
:10177000EB681340042BF4D176E722689A43226089
:1017800022681A4200D061E775E7E36808490B4018
:10179000F1680B43E36073E7002002400010024051
:1017A000FFC7FFFF4E4600086405002088130000B5
:1017B000FFF8FFFF044B054ADB685B055B0FD35C5A
:1017C000034A1068D8407047001002405E46000887
:1017D00064050020044B054ADB689B045B0FD35C67
:1017E000034A1068D8407047001002405E46000867
:1017F000640500208223F7B502681B0105001A4228
:1018000047D0802300215F4C5B05A26B00911A42F8
:1018100004D1A26B1343A3630123009380275A4E84
:101820007F0033683B426DD06968C022080023689E
:10183000920313401040834203D1A86802409342B0
:1018400009D0C0230A009B021A409A4203D12368A0
:1018500001209B0366D4C022236D9202134062D103
:101860006968C0230A009B021A409A4207D1236884
:1018700046480340C020800301400B432360236D92
:101880001A43009B2265012B03D1A36B404A1340EE
:10189000A3632B68DA0706D503203A49CA6C824352
:1018A000E8680243CA649A0706D50C203549CA6C19
:1018B000824328690243CA645A0706D5314935482C
:1018C000CA6C024068690243CA641A0706D52D49EA
:1018D0003148CA6C0240A8690243CA645A0606D558
:1018E00028492E48CA6C0240286A0243CA64002074
:1018F0001B0617D5234A2A49D36C0B40E9690B43D1
:10190000D3640FE033683B433360FEF7C5FE0190BC
:1019100033683B4288D1FEF7BFFE019BC01A6428A2
:10192000F6D90320FEBD11408B4202D029688906FA
:1019300008D4A9680A40934200D191E72B681B059F
:1019400000D48DE78022216D206D120302432265B1
:10195000226D144B14480B40024022652365CB05D1
:1019600000D47DE7FEF798FE80270600BF00236DB8
:101970003B4200D074E7FEF78FFE0C4B801B984271
:10198000F5D9CEE70010024000700040FFFFCFFF06
:10199000FFFFFFEFFFF3FFFFFFCFFFFFFFFFFFFBA7
:1019A000FFFFF3FFFFFFFCFFFFFFF7FF88130000BF
:1019B000F8B504000D0016001F00226893682B4044
:1019C0009D4201D0002031E0731CF7D0FEF764FE89
:1019D000C01B8642F1D8E02123685A688A435A60C6
:1019E00082226168520091420CD18021A2680902D2
:1019F0008A4203D08021C9008A4203D140211A685B
:101A00008A431A608021A26A89018A4206D1196834
:101A100007480140196019680A431A60230001222F
:101A200051331A700023032050342370F8BDC04690
:101A3000FFDFFFFFF8B51300822204004068520068
:101A400090421ED180208025A2680002ED008242D3
:101A500001D0AA4206D1402726683068B8433060DA
:101A6000AA420ED00A0080212000FFF7A1FF002823
:101A700001D10020F8BD2023626D0320134363656C
:101A8000F8E70A000121EFE71300822210B50400F5
:101A900040685200904208D10A0080212000FFF7E0
:101AA00087FF002809D1002010BD22005132127892
:101AB000052AF8D10A000121F0E72023626D0320F6
:101AC00013436365F0E7000070B504000120002CAB
:101AD00037D000232500A36251352B78DBB2002BD1
:101AE00005D1220050321370200002F0BFFB022308
:101AF000402221682B700B68A06893430B606368D9
:101B0000A2690343E0680343206903436069034318
:101B1000E0690343206A0343A06A034380208000F6
:101B2000104003430B600423120C1A40636A002028
:101B30001A434A60CB69034A1340CB6101236065B5
:101B40002B7070BDFFF7FFFFF0B587B00193030066
:101B5000503303931B7804000E0017000225012B5D
:101B600079D00123039A1370FEF796FD22000290AC
:101B700051321378DBB2012B67D11D00002E64D0E7
:101B8000002F62D00233137000236365A363E786DE
:101B9000A387E387636423648023A2682663A78600
:101BA0001B029A4205D180232268DB0111680B4396
:101BB0001360402223681968114202D119680A4350
:101BC0001A608021E06809016268884246D1002AD3
:101BD00001D0012F07D132880236DA60E38E266306
:101BE000013B9BB2E3860225E38E002B15D1029ABE
:101BF00001992000FFF748FF002859D1A368002B66
:101C000006D105932368DA6805929B680593059BC6
:101C1000656D6B1E9D41EDB217E0226893682B4203
:101C200009D0236B19880233D1602363E38E013B13
:101C30009BB2E386D8E7FEF72FFD029BC01A019BFB
:101C40009842D1D30133CFD00325012351342370DF
:101C50000023039A1370280007B0F0BD002A01D0BA
:101C6000012F08D132781A73236B01332363E38E7B
:101C7000013B9BB2E3860225E38E002BB7D023689D
:101C80009A682A420AD0226B12781A73236B0133A6
:101C90002363E38E013B9BB2E386EDE7FEF7FCFC9A
:101CA000029BC01A019B8342E6D80133E4D0CBE704
:101CB00020236365A2E7F0B51F00030085B0019201
:101CC00050331A7804000E000225012A00D19BE04F
:101CD00001221A70FEF7E0FC2300009051331B78BC
:101CE0006168DBB2012B0BD082225200914200D0FE
:101CF00083E0A268002A00D07FE0042B00D07CE0C3
:101D00000125002E00D178E0019B002B75D0002F1B
:101D100073D0230051331A78042A01D005221A7097
:101D20000023019A6365A2634022236463642368ED
:101D3000E787E7861868A7872663A786104202D13F
:101D4000186802431A608022E068120190425ED156
:101D5000002901D0012F07D132880236DA60E38EE4
:101D60002663013B9BB2E386012502272E00E38E0A
:101D7000002B15D1E38F002B12D1009A0A99200075
:101D8000FFF782FE051E00D087E0A368002B34D148
:101D900023680390DA6803929B680393039B2CE00B
:101DA000226893683B420ED0E38E002B0BD0012DAE
:101DB00009D10025236B19880233D1602363E38E98
:101DC000013B9BB2E386936833420CD0E38F002B38
:101DD00009D03500D268A36B1A800233A363E38F66
:101DE000013B9BB2E387FEF757FC009BC01A0A9B9E
:101DF0008342BCD80133BAD00325230001225133DA
:101E00001A70002350342370280005B0F0BD00295B
:101E100001D0012F08D132781A73236B0133236369
:101E2000E38E013B9BB2E386012502272E00E38E61
:101E3000002B02D1E38F002B9FD023689A683A428F
:101E40000FD0E28E002A0CD0012D0AD10025226B82
:101E500012781A73236B01332363E38E013B9BB229
:101E6000E38623689A6832420DD0E28F002A0AD0B6
:101E70003500DB68A26B1370A36B0133A363E38FA0
:101E8000013B9BB2E387FEF707FC009BC01A0A9B4D
:101E90008342CCD80133CAD0AEE720230125636545
:101EA000ABE70000F0B51E0082231700426887B040
:101EB000040002915B009A420FD18368002B0CD181
:101EC0000300042251331A7000963B000A00FFF70A
:101ED000F2FE0500280007B0F0BD23005033049344
:101EE0001B780225012BF5D00123049A1370FEF70D
:101EF000D3FB23005133039005931B78DBB2012BF6
:101F00004FD1029A1D00002A4BD0002F49D0059ACC
:101F100003331370029A0023A2638022A1686365D1
:101F20002363E787A386E38623646364A78712029B
:101F30002368914203D11A682C490A401A60402252
:101F40001968114202D119680A431A60E368012531
:101F5000002B3AD1E38F002B0BD1039A31002000E4
:101F6000FFF768FD00283DD1656D6B1E9D41EDB208
:101F700017E023689A682A420AD01B7BA26B137071
:101F8000A36B0133A363E38F013B9BB2E387E1E7DC
:101F9000FEF782FB039BC01A8642DBD8731CD9D0A4
:101FA00003250123059A13700023049A137091E707
:101FB000226893682B420CD0D268A36B1A8002333C
:101FC000A363E38F013B9BB2E387E38F002BEFD149
:101FD000C3E7FEF761FB039BC01A8642F5D8731C6A
:101FE000F3D0DDE720236365BEE7C046FFBFFFFFF8
:101FF00051300078C0B27047802210B50368D20516
:10200000904205D0104CA04202D0104CA0420FD1FB
:102010007024A3434C682343904205D00A4A90425F
:1020200002D00A4A904203D1094A1340CA681343B6
:10203000802293430A69134303608B68C3620B6871
:1020400083620123436110BD000801400014014078
:10205000FFFCFFFF70B504000120002C14D0250008
:1020600039352B78DBB2002B05D1220038321370C2
:10207000200002F045F9022320682B70211DFFF794
:10208000BBFF012300202B7070BD012203680720D5
:10209000D9681143D96099680140062902D01968AE
:1020A0000A431A600020704701210368DA688A43F6
:1020B000DA60186A034A104202D11A688A431A6029
:1020C0000020704711110000F0B5040002223834DE
:1020D000257803001000012D17D01D0001271B6873
:1020E000393527702A709A68454802409A600A6814
:1020F000402A00D16DE014D8102A0BD006D8002A4F
:1021000008D0012300202B702070F0BD202A01D0C0
:10211000302AF6D170219868884369390A4302430E
:102120003DE0602A3DD017D8502AEAD14868CA68F5
:10213000196A1E6A1201BE43F0271E629E69BE43E1
:1021400032430A26B14301439A61196270219A68A9
:102150008A431100572221E0702A12D0802080018A
:102160008242CED19A6827484E6810408A68C96872
:10217000324309020A4302439A6080229968D201DD
:102180000CE09A681F484E6810408A68C96832435C
:1021900009020A4302439A60772299680A439A60C7
:1021A000AFE71026186A4A68B043C96818629E698A
:1021B000154F09033E403143A026186A99617021EA
:1021C000B043120102431A629A688A4311006722DF
:1021D000E4E74868CA68196A1E6A1201BE43F0271C
:1021E0001E629E69BE4332430A26B14301439A618F
:1021F000196270219A688A4311004722CEE7C046CF
:102200008800FFFFFF00FFFFFF0FFFFF70477047D1
:10221000704770470222036810B519690400114223
:102220000DD0D96811420AD0053A1A619B6904326F
:1022300002769B075ED0FFF7EAFF00232376042295
:1022400023681969114210D0D96811420DD0093A9A
:102250001A61073222769A69C0239B0020001A4235
:102260004ED0FFF7D4FF0023237608222368196994
:1022700011420ED0D96811420BD0113A1A61DB69B4
:102280000D32227620009B0740D0FFF7C0FF0023CD
:102290002376102223681969114210D0D96811429F
:1022A0000DD0213A1A6119322276DA69C0239B00D7
:1022B00020001A4230D0FFF7AAFF00232376012224
:1022C00023681969114207D0D968114204D0033A32
:1022D0001A61200001F012FC4022236819691142A2
:1022E00007D0D968114204D0813A1A612000FFF763
:1022F00090FF10BDFFF78AFF2000FFF789FF9CE7E2
:10230000FFF784FF2000FFF783FFACE7FFF77EFFB6
:102310002000FFF77DFFBAE7FFF778FF2000FFF707
:1023200077FFCAE770B50400383422780300022032
:10233000012A13D01D0070263935287018684268AC
:102340008368B2430E68496832438026B3430B4327
:1023500042608360012300202B70207070BD00005C
:10236000036807491A680A401A609A682331FF31E6
:102370008A439A6020238367002303667047C04620
:10238000DFFEFFFFF8B51300826F05000220202A50
:1023900037D10138002934D0002B32D08022AC68EC
:1023A0005201944204D12A69002A01D1014228D164
:1023B0002E00703632780220012A22D02A00012411
:1023C000583234700027696513802222E86EEF6767
:1023D000AA67B84216D0144A8763C262134A0263DE
:1023E000134A42632A68243294460A006146FEF783
:1023F00001FAB84206D010232000EB67DB183770D3
:102400006B67F8BD802200202B685200196830707D
:102410000A431A60012299680A439A604022996827
:102420000A439A60EDE7C046392400087B2400087F
:1024300087240008704700000368826A20201B6818
:1024400010B5034011D111005A310B801368094CAB
:1024500019682140196099680334FF34A1439960D9
:1024600099683F34A14399609067100001F09CFA8D
:1024700010BDC046FFFEFFFF704710B5806AFFF732
:10248000FBFF10BD704710B5846A2368626FA16FAF
:10249000986800060BD5212A09D12200002052326B
:1024A00010801A68C03082431A60202262679B68DD
:1024B0005B0608D5222906D1230000225A331A8050
:1024C0002000FFF74DFF1023E26F20001343E36766
:1024D000FFF7D8FF10BD0000F8B503680400DA6903
:1024E00018689E6811070AD120210A4200D16AE0CB
:1024F000084268D0236E2000002B5AD15AE00121F7
:1025000035000D4003D190277F0038425BD00A424E
:1025100005D0C60503D51962E66F3143E167022194
:102520000A4206D0002D04D01962E66F49183143E3
:10253000E16704210A4206D0002D04D01962E66F3B
:1025400002393143E167110708D5810601D4002D16
:1025500004D008211962E36F1943E167E36F002B90
:1025600028D020231A4206D0184204D0236E002B14
:1025700001D0200098472368E56F9B6820005B0628
:1025800002D408231D401AD0FFF7EAFE4021236839
:102590009A680A420FD09A68E06E8A439A600028CF
:1025A00009D01A4B8363FEF764F9002802D0E06E6D
:1025B000836B9847F8BD2000FFF764FFFAE7FFF749
:1025C00061FFE567F6E7802149030A4206D07502FC
:1025D00004D51962200000F0A7FAEBE780210A4237
:1025E00003D0084201D0636E85E740210A42E1D062
:1025F0000842DFD01A6820008A431A6020236367EC
:1026000000236366FFF716FFD4E7C04611260008D3
:10261000806A0023020010B55A321380083A1380F2
:10262000FFF730FF10BD0000F8B504002569A2686F
:1026300003682A436569C1692A431868794D0A43CA
:10264000284002431A605A687748784D0240E06893
:1026500002435A60A069AB4201D0226A10439A68D3
:10266000734E324002439A60724A934213D103225E
:10267000714BDB6C1340714AD05C80231B02994282
:1026800000D092E008281ED8FDF748FD5860631D71
:10269000841D1D1D87006A4A934205D10C22664B9A
:1026A000DB6C1340674AE7E7AB4200D0B3E0C021E0
:1026B0008020614A0901D36CC0000B40834238D0AE
:1026C00003D8002B0AD001250DE0802000018342B1
:1026D0000ED08B42F7D1802000020DE0FFF76AF8A0
:1026E0000025A84208D10023280023666366F8BDB0
:1026F0001368DB0620D55448032263685A4382429C
:10270000E1D81A038242DED30027020E01025E08DE
:1027100089197A41080011001A003B00FDF77EFE7E
:102720004A4BC2184A4B9A42CDD823683D00D86024
:10273000D9E7FEF7C7FCD3E74648DDE7FFF73AF8ED
:10274000636840005B08C01861680BE0FFF742F85F
:10275000F6E71025384B61681A684808154006D01E
:102760003D4BC018FDF7E4FC002583B204E03B4B71
:10277000C018FDF7DDFC83B21900394810398142D9
:10278000A1D80F2118001B0788435B0F2168034362
:10279000CB60A8E7FEF796FCD2E763685808802371
:1027A0005B02D0E701250023E6E7082837D8FDF7CC
:1027B000B5FC050C0F362A3636362D00FEF7FAFF2B
:1027C00063685B08C01861680BE0FFF703F8F7E780
:1027D0001025194B61681A68480815400DD01A4B2E
:1027E000C018FDF7A5FC002583B219001C4810395C
:1027F000814200D967E72168CAE7164BC018FDF788
:1028000097FC83B2F1E7FEF75DFCD9E763685808EF
:1028100080231B02D6E780231B029942C2D00125E8
:102820000023E2E7F369FFEFFFCFFFFF004800401E
:10283000FFF4FFFF0038014000100240D7450008B8
:1028400000440040DB45000800093D0000FDFFFF9B
:10285000FFFC0F000024F40000127A000048E80199
:10286000EFFF0000436A30B5DA0706D50168284C4F
:102870004A682240846A22434A609A0706D5016862
:10288000244C4A682240C46A22434A605A0706D54B
:102890000168214C4A682240046B22434A601A07AF
:1028A00006D501681D4C4A682240446B22434A60A9
:1028B000DA0606D501681A4C8A682240846B2243E6
:1028C0008A609A0606D50168164C8A682240C46B55
:1028D00022438A605A0610D50168134D4A68046C79
:1028E0002A4022434A6080225203944205D14A681A
:1028F0000E4C2240446C22434A601B0606D50268F7
:102900000B4953680B40816C0B43536030BDC0468C
:10291000FFFFFDFFFFFFFEFFFFFFFBFFFF7FFFFF4E
:10292000FFEFFFFFFFDFFFFFFFFFEFFFFFFF9FFF57
:10293000FFFFF7FFF8B504000E0015001F00226826
:10294000D36933409B1B59424B41AB4201D000201D
:102950001BE0069B0133F3D0FDF79EFE069BC01BD8
:10296000834201D3002BEAD1236808491A68032067
:102970000A401A609A68A331FF318A439A60202383
:102980006367A367002370342370F8BD5FFEFFFF09
:10299000F0B587B00593436F04000D0017000220C7
:1029A000202B49D10138002946D0002A44D0802369
:1029B000A2685B019A4204D12369002B01D1014234
:1029C0003AD1230070331A780220012A34D0012230
:1029D00000261A702123E6676367FDF75DFE23007A
:1029E00050331F80023303931F808023A26804901A
:1029F0005B019A4204D12369B34201D12E001D002C
:102A0000230052331A88059B92B20093049B002A3C
:102A10000AD140212000FFF78DFF00280BD1202391
:102A200070346360207007E0002280212000FFF7EF
:102A300081FF002802D0032007B0F0BD2268002DDE
:102A40000BD133880236DB05DB0D9362039B039ABF
:102A50001B88013B9BB21380D2E72B780135936230
:102A6000F4E7000073B500260400C667FDF714FE06
:102A7000236805001B681B0715D423681B685B07C8
:102A80000AD580210E4B00220093C9032B002000A1
:102A9000FFF750FF002811D1202300206367A367B0
:102AA000703420700BE08021054B320000938903C5
:102AB00003002000FFF73EFF0028DED0032076BD94
:102AC000FFFFFF0110B5041E01D1012010BD436FAF
:102AD000002B04D102007032137001F027FC242374
:102AE000012122686367136820008B431360FFF79E
:102AF0009BFD0128E9D0636A002B02D02000FFF77C
:102B0000B1FE236807495A6820000A402A215A600A
:102B10009A688A439A60012219680A431A60FFF78B
:102B2000A1FFD3E7FFB7FFFF7047000070B5FA259C
:102B30000A4CAD002B00132209492000FFF728FFA3
:102B40002B00142207492000FFF722FF2B0034221C
:102B500005492000FFF71CFF70BDC0469807002004
:102B6000140000200000002027000020F7B53349A2
:102B70000622684601F0DAFC31496846FDF7C4FADE
:102B8000002801D00020FEBD03002E492E4D2F4EFF
:102B90002F4F0A780A2A1CD02C2A03D10020013397
:102BA0000131F6E72B4C022B0FD0032B02D13A5404
:102BB0000130F5E7042B01D13254F9E7052B01D19F
:102BC0002A54F5E7062B02D1234C2254F0E7062BBA
:102BD000E6DD214E3378302BD4D000231B4A1F4C26
:102BE00093721C49184A1A4F20004B727B70537025
:102BF000737001F0B9FC1A4D2000290001F0A7FC08
:102C00003900200001F0A3FC2900200001F09FFC06
:102C10000E49200001F09BFC2900200001F097FCE8
:102C20000949200001F093FC2900200001F08FFCED
:102C30003100200001F08BFC0120A4E79305002067
:102C4000E8450008990500201409002065080020C7
:102C50001609002072080020700800204A08002091
:102C6000EF45000870B58026124D3602310028006D
:102C70000022114CFDF72AFF0A20FDF713FD002268
:102C800020212000FDF722FF0320FDF70BFD31007E
:102C900028000122FDF71AFF0520FDF703FD0122A0
:102CA00020212000FDF712FFFA208000FDF7FAFC3A
:102CB00070BDC04600080050000400507FB51422CB
:102CC000002101A801F03BFC80231B020193094B6A
:102CD00001A90293022308480493FDF73BFE00225A
:102CE00007201100FDF7EEFC0720FDF71BFD07B0E4
:102CF00000BDC04600002110000800507FB50F2520
:102D0000FD230200FA206D442B70184C8BB2184939
:102D10008000098800902000FEF75CF82200413214
:102D20001378202BFCD1134B2A001988FA239B001F
:102D3000009320000123FEF7E3F8220041321378CC
:102D4000202BFCD1FA26B6002878FE2801D004B04A
:102D500070BD2A0000960123AB212000FEF7D0F8B9
:102D6000220041321378202BFCD1EDE7040700202C
:102D7000600000205E00002010B5264C86B02100C7
:102D800003220D3101A801F0D1FB032101A8FFF7B7
:102D9000B5FF002803D00124200006B010BD21009B
:102DA0000322103102A801F0C1FB032102A8FFF7A2
:102DB000A5FF0028EFD121000322133103A801F061
:102DC000B5FB032103A8FFF799FF0028E3D11430D6
:102DD000FDF768FC21000322163104A801F0A6FBD0
:102DE000032104A8FFF78AFF0028D4D12830FDF77B
:102DF00059FC21000322193105A801F097FB03219A
:102E000005A8FFF77BFF041EC5D12820FDF74AFC6B
:102E1000C2E7C0469045000813B5042405492200C6
:102E2000223101A801F082FB210001A8FFF766FF13
:102E300013BDC0469045000873B5FA25174C16001F
:102E4000174AAD008BB21188020000952000FDF7F3
:102E5000C1FF220041321378202BFCD1114B3200EC
:102E60001988200000950223FEF74AF8220041321B
:102E70001378202BFCD1FA25AD003378FE2B00D03F
:102E800073BD320000950223AB212000FEF738F815
:102E9000220041321378202BFCD1EEE704070020FA
:102EA000600000205E00002030B51B4D0324290087
:102EB00085B02631220001A801F038FB290002224A
:102EC0002931684601F032FB6A46210001A8FFF76C
:102ED000B3FF6B461B78002B1BD16B467F225B78C0
:102EE00003A813406A465370402204210270373A07
:102EF00044708270C370FFF701FF002809D12900D8
:102F00002200193102A801F011FB210002A8FFF7ED
:102F1000F5FE05B030BDC0469045000873B5FA25F2
:102F2000104C1600104AAD008BB2118802000095BB
:102F30002000FDF74FFF220041321378202BFCD1F7
:102F40000A4B20001988320000951F23FDF7D8FF97
:102F500041342378202BFCD1307843425841C0B211
:102F600076BDC04604070020600000205E000020FF
:102F70000023F0B5304E87B002AD293601AF0222F2
:102F80003100040028003B707B7001F0CFFA2A006A
:102F900002213800FFF750FF2B78002B49D16A78C7
:102FA000082A46D103AF04AD0A323A703100103A14
:102FB00028007B7001F0BAFA2A0002213800FFF7DE
:102FC0003BFF2B78002B34D16A781C4B1A491A70BE
:102FD0002B31022205A801F0A9FA2200022105A83E
:102FE000FFF79CFF002824D06078A37800021843E4
:102FF0000A21FDF727F9124B85B21D80E278114BAB
:1030000020791A706379000218430A21FDF71AF932
:103010000D4B80B21880A2790C4B333D1A70CB2D2A
:1030200007D83338312804D80122094B1A70FFF72A
:10303000F3FE012007B0F0BD904500085C000020C1
:10304000DA0500208B050020900500209205002065
:1030500089050020F7B56B469D1D80235B42184310
:103060006B46DE1D28703170154C2000FEF7C0FF46
:1030700007000128F8D1A02000221021C005FDF78B
:1030800025FDFA233A009B0029002000FEF75CFD95
:103090002000FEF7ADFF02000128F9D1FA2331002C
:1030A0009B002000FEF750FD2000FEF7A1FF02006C
:1030B0000128F9D1A0201021C005FDF707FDF7BDBB
:1030C0007C080020F7B56B469E1D7F2318406B4699
:1030D000DD1D002330702B70164C2000FEF788FF9A
:1030E00007000128F8D1A02000221021C005FDF71B
:1030F000EDFCFA233A009B0031002000FEF724FD8E
:103100002000FEF775FF02000128F9D1FA232900FB
:103110009B002000FEF7C6FE2000FEF769FF0200BC
:103120000128F9D1A0201021C005FDF7CFFC287897
:10313000FEBDC0467C080020F0B585B002ABDD1DA9
:1031400000230F0001902B70164C2000FEF750FF5B
:1031500006000128F8D1A02000221021C005FDF7AB
:10316000B5FCFA2332009B0029002000FEF7ECFC9E
:103170002000FEF73DFF0128FAD1FA233A009B0018
:1031800001992000FEF78EFE2000FEF731FF0200BD
:103190000128F9D1A0201021C005FDF797FC05B04A
:1031A000F0BDC0467C080020012110B50800FFF7E3
:1031B00051FFFF211220FFF74DFF1220FFF782FF82
:1031C000041E11D11020FFF77DFF01000D20FFF735
:1031D00041FF1320FFF776FF81B20C48FFF7ACFFE9
:1031E00021000D20FFF736FF05210120FFF732FFF8
:1031F00000214020FFF72EFF054C28220549200022
:1032000001F094F9200000F0A9FF10BD2C06002069
:103210007C06002030060020F0B585B002AB9E1D74
:1032200080235B42184302ABDD1D00230091019215
:1032300030702B70002A26D01B4C2000FEF7D8FEE1
:1032400007000128F8D1A02000221021C005FDF7B9
:103250003DFCFA233A009B0031002000FEF774FC8D
:103260002000FEF7C5FE0128FAD1FA27009EBF0014
:10327000009B019AF31A9A4207DCA0200122102138
:10328000C005FDF723FC05B0F0BD337801222B709B
:1032900029003B002000FEF757FC2000FEF7A8FEA7
:1032A0000128FAD10136E3E77C08002070B50C0054
:1032B000012105000800FFF7CDFE00210D20FFF7DA
:1032C000C9FE1E4B00201978FFF7C4FE1C4B0020DE
:1032D0001978FFF7BFFE1B4B00201978FFF7BAFEE5
:1032E000194B00201978FFF7B5FE220029000020B5
:1032F000FFF792FF211DC9B22220FFF7ABFEFF218D
:103300001220FFF7A7FE03210120FFF7A3FE1220E2
:10331000FFF7D8FE0828FAD101210800FFF79AFE2E
:10332000FF211220FFF796FE05210120FFF792FEF4
:1033300000214020FFF78EFE70BDC04663000020D4
:1033400062000020850500208405002010B5314C66
:10335000002201212000FDF7B9FB0A20FDF7A2F9A8
:10336000012220001100FDF7B1FB0A20FDF79AF9B8
:1033700080210120FFF76EFE00210E20FFF76AFE7C
:1033800000210F20FFF766FE72211D20FFF762FE6D
:1033900074211E20FFF75EFE04212620FFF75AFE4F
:1033A00000212020FFF756FE08212120FFF752FEC2
:1033B0006C210620FFF74EFE80210720FFF74AFE12
:1033C00000210820FFF746FE04214D20FFF742FEB2
:1033D00088210920FFF73EFEE4210620FFF73AFE90
:1033E000C0210720FFF736FE00210820FFF732FE3C
:1033F00007214D20FFF72EFE8F210920FFF72AFE1F
:1034000005210120FFF726FE00214020FFF722FEC4
:1034100010BDC04600040050792370B52C258CB037
:1034200001AC2370483BA370344B64211E88657047
:103430003000E570FCF77CFE0A2180B2FCF7FEFE4E
:103440003031217130000A21FCF772FE0A2180B26E
:10345000FCF7F4FE3031617130000A21FCF7EEFE1A
:10346000274B30311E88A17130006421E571FCF7D3
:103470005FFE0A2180B2FCF7E1FE3031217230009C
:103480000A21FCF755FE0A2180B2FCF7D7FE303145
:10349000617230000A21FCF7D1FE0A263031A17298
:1034A0000922184904A8E57201F040F8164B3200D1
:1034B0001B78164907A8A3756575E57501F036F800
:1034C0006B460733DD77124B29211A7802ABDA7786
:1034D00009236B44DD770F4B20001A7833006B44CF
:1034E000DA770B230D226B44DD7703ABDA770BAB76
:1034F0001E70FFF7DBFE0CB070BDC046DA05002081
:1035000090050020720800201609002065080020A0
:10351000140900207008002010B59CB0382200214A
:103520000EA801F00CF814220021684601F007F8FB
:103530002422002105A801F002F81449144A0B685E
:1035400000241A4080231B0113430B6010230E93A9
:103550000F3B1593A0230EA81B02179316941894E3
:10356000FDF7ECFD0F2321006846009301940294BF
:1035700003940494FEF766F8092305A805930894BC
:103580000B94FEF737F91CB010BDC0460070004028
:10359000FFE7FFFFF0B58DB0FDF762F8FFF7BCFF66
:1035A0001422002107A800F0CAFF042101250227E8
:1035B0008024DB4E2402F26ADA480A43F262F36A9C
:1035C00000220B400293029BF36A21002B43F3621B
:1035D000F36A2B400393039BF36A3B43F362F36A62
:1035E0003B400493049BFDF771FAA0202A001021B0
:1035F000C005FDF76BFA2A002121CB48FDF766FADA
:10360000A0210022C901C848FDF760FA8021A0204E
:1036100000224900C005FDF759FA0794002407A9C4
:10362000C048089509940A94FDF794F98823A020CE
:103630005B0007A9C0050793089509940A94FDF754
:1036400089F9BA4B07A9B8480793089509940A94D1
:10365000FDF780F9B64B07A9B3480797089309947B
:10366000FDF778F9C0239B000793B24B07A9AE483A
:1036700008930994FDF76EF9220021000520FDF75B
:1036800021F80520FDF74EF8220021000720FDF764
:1036900019F80720FDF746F8336B22002B433363FC
:1036A000336B21002B4001930A20019BFDF70AF8A0
:1036B0000A20FDF737F8A048A04B8026036082233C
:1036C0005B004360EC3BB600C361113B8661C362A3
:1036D0008460C46004614461046244628462FEF7F1
:1036E000F3F9974F974B38003B6096239B017B6023
:1036F0000C23BC607B61FC603C61BC61FC613C6292
:103700007C62FFF7DFF92A0021001B20FCF7DAFFBB
:103710001B20FDF707F88C488C4B866103608223E1
:103720005B004360EC3BC361113BC3628460C460D7
:1037300004614461046244628462FEF7C5F9844E08
:10374000844B30003360E123DB007360F560B460CC
:1037500034617461B461F4613462FDF7E5FA21000B
:103760003000FDF765FC21003000FDF787FC1022DA
:10377000210007A800F0E3FE0822210005A800F0C0
:10378000DEFE8023744DDB052B60744B28006B60DC
:10379000734BAC60EB602C616C61FEF75BFC8023CB
:1037A00007A95B0128000793FEF78EFC05A92800F6
:1037B00005940694FEF7B6FD00F030FAFFF7B6F96F
:1037C000FFF7C4FDFFF74EFAFFF7D6FAFFF776FAD8
:1037D000FFF722FBBB6F202B04D146226149380042
:1037E000FEF7D0FD604B1B78002B07D15F4B1B7899
:1037F000002B58D05E4B1B78002B54D0BB6F202B76
:1038000004D1462257493800FEF7BCFD594B1B78BE
:10381000002BE7D0584B1B78002BE3D1514C22787A
:10382000302A03D10023534A1370DBE7534D1800AD
:1038300019000122AC46551E655D242D02D1165D8E
:10384000472E01D0002B08D063461D540130C0B272
:1038500001232C2D01D1C918C9B20132462A01D049
:103860000729E8D9FFF782F90028DBD00122424B73
:10387000434C1A7000233C4A13703D4A137023785E
:10388000002B03D100F076FA0123237000F026FC10
:10389000FA204000FCF706FF3A4B1B78002BC1D101
:1038A000FFF702FBBEE7344E3378002B0FD0364DC6
:1038B0002B78002B0BD08024344B2405DC67FFF7DA
:1038C000ABFD002333702B70314B1C608AE7314C09
:1038D0002678002E0CD02A4D2B78002B03D100F037
:1038E00049FA01232B70FFF75FFC0023237079E76F
:1038F000294D2B78002B00D174E7284C0221237826
:10390000002B06D0264800F045F9267000232B70C6
:1039100068E7244800F03EF901232370F6E7C0462B
:103920000010024000080050000400502150000028
:1039300000001110000021107C0800200030014020
:103940009807002000380140A806002000380040F9
:103950000407002000540040D8080020400D030058
:10396000DC050000DD0500208D0500208E0500200F
:1039700064000020870500208805002093050020B2
:10398000240600208F0500208A05002004E100E0C5
:1039900000E100E08C05002086050020DC05002009
:1039A0006500002067000020F0B58020802480267C
:1039B000202501210C4B24051A1DC000D667D567B0
:1039C000D467D067094A1170094A073112689769AC
:1039D0003943916110219769394391611E601D60DF
:1039E0001C601860F0BDC04600E100E087050020C3
:1039F00098070020F7B520228026344B344DDE672F
:103A0000DA6780221205DA678022D200DA67802224
:103A100000AF12022C003B60904235D16B466A46E3
:103A20007B602C4B1B780733DB08DB00D31A9D46E9
:103A30006846FFF79DFA284B1A78002A04D12E60B9
:103A40007B689D46BD46F7BD002201261A70234DB6
:103A5000234B1E702B78934202D100F08BF92E700D
:103A6000204B1978204B187800F0BAFA00F056FB7A
:103A700080233A68D367603B236080231B05236063
:103A80008023DB002360DBE702280DD10122174BE6
:103A90001A7080232360603B236080231B05236012
:103AA0008023DB002360CDE780235B00984202D1B6
:103AB00001220F4BECE780239B009842E9D10D488F
:103AC000FEF7E3FA01220C4BE2E7C04604E100E016
:103AD00000E100E05B0000208905002024060020B2
:103AE0008A05002090050020DA0500208C050020C2
:103AF00086050020D80800208F05002080221E4B5C
:103B000070B5DA67603ADA6780221205DA678022D8
:103B10001A4CD200DA6723780500012B05D1FEF795
:103B2000C3FA00F03DFA00232370154B1E78012ED6
:103B30001FD102212A684942116180210022890097
:103B400010481A70FCF7BCFF002806D107210E4868
:103B5000FFF7ACFB00F004FA267080220B4B1A60D2
:103B6000603A1A60802212051A608022D2001A6020
:103B700070BD01221A70F0E704E100E08F0500201B
:103B800023060020000400506900002000E100E04E
:103B900070470000F8B50F00802580210C4C06000E
:103BA0006D0120000022C901FCF790FF29002000D0
:103BB0000022FCF78BFFFA233A0031009B000548F6
:103BC000FDF7C2FF290001222000FCF77FFFF8BDAE
:103BD00000040050A8060020F8B50F0080258021C1
:103BE0000C4C06006D0120000122C901FCF76EFF9C
:103BF000290020000022FCF769FFFA233A00310077
:103C00009B000548FDF7A0FF290001222000FCF7DA
:103C10005DFFF8BD00040050A80600208021A02010
:103C200030B5012285B04900C005FCF74FFF802167
:103C30000825012249010F48FCF748FF0E4C2A00D5
:103C4000210002A800F072FC6119022401A82200E0
:103C500000F06CFC290002A8FFF79CFF210001A8DE
:103C6000FFF798FF80210548C900FFF7B5FF05B0B1
:103C700030BDC04600040050BD4500087000002063
:103C800010B58024E40001210348013CFFF7A4FFA4
:103C9000002CF8D110BDC04625060020F0B50F005D
:103CA0000500062487B02A78002A5FD01300163B4F
:103CB000634311000093230041394B4310000193EB
:103CC0000023C9B230380291C1B203910299192977
:103CD00007D8274901980918C95C04A8C1542100D4
:103CE00019E00399092902D821490098F3E7252A08
:103CF00006D11F498C461900D8316046415CECE77B
:103D00003A2A16D11A498C461900EA316046415CBC
:103D100004A8C154022104A8185C384384466646AE
:103D200004A81E540133062BD0D1FFF755FF0135EF
:103D3000B9E72E2A04D10E498C461900EC31DCE794
:103D4000202A04D10A498C461900E431D5E7402ADB
:103D500004D107498C461900E431D7E721002A2A0B
:103D6000D9D103498C461900DE31C6E707B0F0BD52
:103D700070040020F7B52223032500266A4628494F
:103D800001AC1370567096700A312A00200000F0C2
:103D9000CDFBFFF775FF29006846FFF7FBFE290002
:103DA0002000FFF7F7FE31001E48FFF777FF0127DD
:103DB0006B465F709F707F2329006846A370667012
:103DC000FFF7E8FE29002000FFF7E4FE390016485F
:103DD000FFF764FF6A460223290053709370684618
:103DE0007D33A3706670FFF7D5FE29002000FFF732
:103DF000D1FE31000D48FFF751FF6B465D709D709D
:103E00007F2329006846A3706670FFF7C3FE290070
:103E10002000FFF7BFFE31000548FFF73FFFF7BD69
:103E2000BD450008FE450008144600082A46000863
:103E300030460008F0B51F000025222387B001910D
:103E40003649029205AC04AA1370557095700600AD
:103E500003220A31200000F069FB3B78312B29D185
:103E60001F3B032104A8A370FFF794FE0321200049
:103E7000FFF790FE29003000FFF710FF21230321F8
:103E8000637004A81133A370FFF784FE03212000A0
:103E9000FFF780FE29000198FFF700FF612303214F
:103EA000637020001833A370FFF774FE2900029896
:103EB000FFF7F4FE3B780393322B2CD1032504ABA0
:103EC00000275D709D701223290004A8A3706770FD
:103ED000FFF760FE29002000FFF75CFE390030008C
:103EE000FFF7DCFE212363706B461B7B290020005B
:103EF000A370FFF74FFE39000198FFF7CFFE412373
:103F00002900637020003033A370FFF743FE3900AF
:103F10000298FFF7C3FE07B0F0BDC046BD450008DC
:103F200037B5222303246A460C49050013700A3171
:103F3000220001A800F0FAFA02236A46210068462E
:103F400053709370FFF726FE210001A8FFF722FEB1
:103F500028000021FFF7A2FE37BDC046BD4500087E
:103F600037B50D4D0324290022000D31684600F0BD
:103F7000DDFA290022000A3101A800F0D7FA210059
:103F80006846FFF707FE210001A8FFF703FE0021A6
:103F90000248FFF783FE37BDBD450008F345000822
:103FA00037B50D4D0324290022000D31684600F07D
:103FB000BDFA290022000A3101A800F0B7FA210059
:103FC0006846FFF7E7FD210001A8FFF7E3FD0021A8
:103FD0000248FFF763FE37BDBD4500081F460008D5
:103FE000F0B506003A4F87B0103704AC01910422B7
:103FF0003900200005AD00F099FA390004222800AC
:1040000000F094FA64213000FCF792F8C7B20A215C
:104010003000002F3AD1FCF711F93031A170300097
:104020000A21FCF785F80A21C0B2FCF707F9202322
:1040300030316170237064210198FCF779F8C6B2C1
:104040000A210198002E32D1FCF7F8F83031A9701E
:1040500001980A21FCF76CF80A21C0B2FCF7EEF8CF
:104060002023303169702B701A4E3378002B03D126
:10407000FFF780FE01233370312203AB1A70290051
:10408000154A2000FFF7D6FE07B0F0BDFCF7D6F8C2
:104090003031A17030000A21FCF74AF80A21C0B281
:1040A000FCF7CCF83037303161702770C3E7FCF78C
:1040B000C5F83031A97001980A21FCF739F80A21B6
:1040C000C0B2FCF7BBF83036303169702E70CBE7E8
:1040D000BD450008240600204A46000837B50D4DAE
:1040E0000324290022001431684600F01FFA290039
:1040F0002200173101A800F019FA21006846FFF7E5
:1041000049FD210001A8FFF745FD00210248FFF706
:10411000C5FD37BDBD450008F145000837B50D4D5B
:104120000324290022001431684600F0FFF9290019
:104130002200173101A800F0F9F921006846FFF7C5
:1041400029FD210001A8FFF725FD00210248FFF706
:10415000A5FD37BDBD45000828460008F0B5214B38
:1041600082781B7889B004009A4238D103787A2B80
:104170000AD1011D0F2204A800F0D8F904A8FFF706
:10418000CFFE0122184B1A702378782B27D10023F9
:1041900002AD03AEEB70F37001AF3233211D032289
:1041A00028003B7000F0C2F92100032208313000E2
:1041B00000F0BCF9210004220C3104A800F0B6F98B
:1041C00021000222113105A800F0B0F93B0004AA39
:1041D00031002800FFF72EFE0122044B1A7009B0AF
:1041E000F0BDC046620500208E0500208D05002030
:1041F0000122054B596B0A435A638022996B520581
:104200000A439A637047C0460010024010B504008C
:1042100086B01422002101A800F091F9104B226809
:104220009A421AD102210F4C0F48E26A0A43E26215
:10423000E36A03220B400093009BC0230193AE3B33
:10424000029301A9113B039304920593FCF782FBAF
:104250008023A26B9B031343A36306B010BDC0462B
:1042600000540040001002400004005010B504004B
:1042700088B01422002103A800F061F923681C4AC9
:1042800093421AD180221B4B5201596BA0200A4342
:1042900001215A63DA6AC0050A43DA62DB6A0B401D
:1042A0000193019BE0230393DE3B04935B18069389
:1042B00003A9FCF74FFB08B010BD0F4A9342FAD197
:1042C00080220C4BD201996B0C480A439A6302225C
:1042D000D96A1143D962DB6A03A913400293029B96
:1042E000A0231B020393032304920693E1E7C04635
:1042F000003001400010024000380040000400502F
:104300008023026810B5DB059A420CD10123064ACE
:104310000F20916B0B43936300221100FCF7D2F93D
:104320000F20FCF7FFF910BD0010024070B505002A
:1043300086B01422002101A800F001F91F4B2A6861
:104340009A4239D180221E4BD201596BA0200A43D8
:1043500001215A63DA6A03260A43DA62DB6AC0057E
:104360000B400093009BC023DB000193022301A9B3
:104370000293DB1805930496FCF7ECFA114C124BF0
:1043800080222360002320006660A360E360226136
:104390006361A361E3612362FCF7E8F9002801D0BF
:1043A000FFF7F6FB00221B20EC661100A562FCF76C
:1043B00089F91B20FCF7B6F906B070BD0038014042
:1043C0000010024050070020300002407047FEE716
:1043D0007047704710B5FCF757F910BD10B50220B3
:1043E000FCF77AFB10BD802010B54000FCF774FB91
:1043F00080208000FCF770FB80200002FCF76CFB43
:1044000010BD000010B50248FCF758FA10BDC046B8
:104410005007002010B50248FDF7FCFE10BDC04655
:10442000D808002010B50248FEF756F810BDC04667
:10443000980700208022104B520019680A431A6026
:10444000DA680E490A40DA601A680D490A4001210B
:104450001A609A688A439A601A680A490A401A6080
:10446000DA6809490A40DA6000221A618022074BA3
:1044700012059A607047C046001002400C40FF8849
:10448000F6FFF6FEFFFFFBFFFFFF02FF00ED00E07F
:104490000D488546002103E00C4B5B584350043126
:1044A0000B480C4B42189A42F6D30B4A02E0002309
:1044B00013600432094B9A42F9D3FFF7BBFF00F0B7
:1044C00011F8FFF767F8FEE700200020804600089B
:1044D0000000002068050020680500201809002061
:1044E000FEE7000070B500260C4D0D4C641BA410B7
:1044F000A64209D1002600F03FF80A4D0A4C641B81
:10450000A410A64205D170BDB300EB589847013600
:10451000EEE7B300EB5898470136F2E7784600081B
:1045200078460008784600087C460008002310B54D
:104530009A4200D110BDCC5CC4540133F8E70300AB
:104540008218934200D1704719700133F9E70200D5
:1045500010B51378002B05D1CC5CD4540133002C5A
:10456000FAD110BD0132F4E7031C0A7801311A7048
:104570000133002AF9D17047F8B5C046F8BC08BC31
:104580009E467047F8B5C046F8BC08BC9E467047CA
:104590004003094001000210000410000310000253
:1045A000100105520001440301520201520200446D
:1045B000030040030987410309FDFD1201A83FD311
:1045C000002010AFACC8A121007F2204043030309D
:1045D0000022070721797F0104020800101010044F
:1045E0001010100210101008244750474741002CAB
:1045F000002E00532E4F2E532053454E54002020A2
:1046000020402A402020202025202020202020205B
:1046100020202000202020202020202020202020BA
:1046200020202020202020202000544F544F200004
:10463000202020402A40202020202520202020202B
:104640002020404D20202020200046495800000016
:104650000000000000000102030406070809000032
:10466000000001020304030406080C1018203000A7
:08467000ECBDFF7F010000001A
:04467800E90000084D
:04467C00C100000871
:1046800024504D544B3232302C31303030302A32BD
:10469000460D0A0024504D544B3235312C393630FA
:1046A000302A31370D0A0024504D544B3331342C0D
:1046B000302C302C302C312C302C302C302C302C19
:1046C000302C302C302C302C302C302C302C302C0A
:1046D000302C302C302A32390D0A0064FF00AB0038
:1046E000AA00FFFF0181FF810F732C312C0D0A00FE
:1046F000000000C0FEFEFE0E0E7EFCF8C0000000B2
:1047000000000000000000000000C0F8FC7E0E0E5B
:10471000FEFEFEC0000000000000000000000000DF
:1047200000FC3FFF0000000000000000000000004F
:1047300000000000000000000000FEFEFEFEFE0E75
:104740000E0E0E0E0E0E0E0E0E1E1E3CFCF8F0E0AF
:10475000000000000000000000F0F8FCFC3E1E1EFF
:104760000E0E0E0E0E0E0E0E0E0E0E0E0E0E0E0077
:10477000000000FFFFFF0F000000030F7FFEF0C0EE
:1047800000000000000000C0F0FE7F0F03000000EA
:104790000FFFFFFF0000000000000000000000808D
:1047A000FE030007FC000000000000000000000005
:1047B00000000000000000000000FFFFFFFFFF807E
:1047C00080808080808080808080C0E0FFFF7F3F8D
:1047D0000000000000000000000F3F7FFFF8F0F035
:1047E000E0E0E0C0C0C0C0808080000000000000A9
:1047F000000000FFFFFF00000000000000073FFF77
:10480000FFF0800080F0FFFF3F0700000000000085
:1048100000FFFFFF00000000000000000000703FEC
:10482000000000003FC00000000000000000000089
:1048300000000000000000000000FFFFFFFFFF0776
:104840000707070707070707070F7FFDF0F0C000FE
:104850000000000000000000000000000000010156
:104860000101010303030307070F1FFFFEFCF00014
:104870000000007F7F7F00000000000000000001BA
:1048800007070706070707010000000000000000F7
:10489000007F7F7F0080F8E00000000000F00F0044
:1048A0000000000000FF0000000000000000000009
:1048B00000000080F03CF0C00000FFFFFFFFFF00A1
:1048C0000000000000000000000000031F7F7F7E4A
:1048D00078000000000000000000707070707070C0
:1048E0007070707070707078787C3E3F3F1F03006E
:1048F0000C0C0C0C0C0C0C0C0C0C0C0C0C0C0C0CF8
:104900000C0C0C0C0C0C0C0C0C0C0C0C0C0C0C0CE7
:104910000C0C0C0C0C0700037C800000FC07000052
:10492000000000000003FF00000000C0F0E0800075
:1049300080F01C070000000F1FF8E0000000C0F826
:104940000C0C0C0C0C0C0C0C0C0C0C0C0C0C0C0CA7
:104950000C0C0C0C0C0C0C0C0C0C0C0C0C0C0C0C97
:104960000C0C0C0C0C0C0C0C0C0C0C0C0C0C0C0C87
:104970000000000000000000000000000000000037
:104980000000000000000000000000000000000027
:1049900000000000000000000007F87F0100000098
:1049A0000000000000001FE0000000FF00010707FA
:1049B00007010000000000000000031F3C1F03006F
:1049C00000000000000000000000000000000000E7
:1049D00000000000000000000000000000000000D7
:1049E00000000000000000000000000000000000C7
:1049F00000000000000000000000000000000000B7
:104A000000000000000000000000000000000000A6
:104A10000000000000000000000001000000000095
:104A200000000000000000FF0000FC3F000000004C
:104A30000000000000000000000000000000000076
:104A40000000000000000000000000000000000066
:104A50000000000000000000000000000000000056
:104A60000000000000000000000000000000000046
:104A70000000000000000000000000000000000036
:104A80000000000000000000000000000000000026
:104A90000000000000000000000000000000000016
:104AA0000000000000000001FFFC0F0000000000FB
:104AB00000000000000000000000000000000000F6
:104AC00000000000000000000000000000000000E6
:104AD00000000000000000000000000000000000D6
:104AE00000000000000000000000000000000000C6
:104AF0007E0909097E007F49494936003E4141410E
:104B000022007F4141221C007F49494941007F0921
:104B1000090901003E41414938007F0808087F002B
:104B200041417F41410031413F0101007F08142292
:104B300041007F40404040007F0214027F007F041C
:104B400008107F003E4141413E007F0909090600EF
:104B50003E4151215E007F091929460026494949F5
:104B6000320001017F0101003F4040403F001F2013
:104B700040201F003F4030403F0063140814630092
:104B80000304780403006151494543003E514945FF
:104B90003E0044427F404000426151494600224964
:104BA000494936001814127F10002F494949310035
:104BB0003E49494932000301710907003649494914
:104BC0003600264949493E002210080422000619F1
:104BD00062190600000000000000220000400000F2
:084BE00000003100000020007C
:04000005080044911A
:00000001FF
