:020000040800F2
:10000000002000208D3C0008E53B0008E73B00088D
:1000100000000000000000000000000000000000E0
:10002000000000000000000000000000E93B0008A4
:100030000000000000000000EB3B0008ED3B000862
:10004000DD3C0008DD3C0008DD3C0008DD3C00082C
:10005000DD3C0008F53B0008DD3C0008253C0008BD
:10006000DD3C0008DD3C0008053C0008DD3C0008E4
:10007000DD3C0008DD3C000800000000DD3C00081D
:1000800000000000DD3C000800000000000000004F
:10009000DD3C000800000000DD3C0008DD3C0008FD
:1000A000DD3C0008DD3C0008DD3C0008153C000894
:1000B000DD3C0008DD3C0008DD3C0008DD3C0008BC
:1000C00010B5064C2378002B07D1054B002B02D02E
:1000D000044800E000BF0123237010BD5C05002030
:1000E00000000000743D0008044B10B5002B03D045
:1000F0000349044800E000BF10BDC04600000000F6
:1001000060050020743D000802780B78002A03D0B7
:10011000013001319A42F7D0D01A704702B47146CB
:1001200049084900095C49008E4402BC7047C0463A
:10013000002243088B4274D303098B425FD3030A26
:100140008B4244D3030B8B4228D3030C8B420DD339
:10015000FF22090212BA030C8B4202D312120902C7
:1001600065D0030B8B4219D300E0090AC30B8B4205
:1001700001D3CB03C01A5241830B8B4201D38B03B3
:10018000C01A5241430B8B4201D34B03C01A524158
:10019000030B8B4201D30B03C01A5241C30A8B429B
:1001A00001D3CB02C01A5241830A8B4201D38B0286
:1001B000C01A5241430A8B4201D34B02C01A52412A
:1001C000030A8B4201D30B02C01A5241CDD2C3099C
:1001D0008B4201D3CB01C01A524183098B4201D318
:1001E0008B01C01A524143098B4201D34B01C01A03
:1001F000524103098B4201D30B01C01A5241C3087B
:100200008B4201D3CB00C01A524183088B4201D3E9
:100210008B00C01A524143088B4201D34B00C01AD5
:100220005241411A00D20146524110467047FFE741
:1002300001B5002000F0F0F802BDC0460029F7D05B
:1002400076E7704703460B437FD4002243088B4276
:1002500074D303098B425FD3030A8B4244D3030B4D
:100260008B4228D3030C8B420DD3FF22090212BA12
:10027000030C8B4202D31212090265D0030B8B428E
:1002800019D300E0090AC30B8B4201D3CB03C01A78
:100290005241830B8B4201D38B03C01A5241430B53
:1002A0008B4201D34B03C01A5241030B8B4201D343
:1002B0000B03C01A5241C30A8B4201D3CB02C01AAE
:1002C0005241830A8B4201D38B02C01A5241430A26
:1002D0008B4201D34B02C01A5241030A8B4201D315
:1002E0000B02C01A5241CDD2C3098B4201D3CB01BC
:1002F000C01A524183098B4201D38B01C01A52416B
:1003000043098B4201D34B01C01A524103098B426E
:1003100001D30B01C01A5241C3088B4201D3CB0059
:10032000C01A524183088B4201D38B00C01A52413C
:1003300043088B4201D34B00C01A5241411A00D2EC
:1003400001465241104670475DE0CA0F00D0494255
:10035000031000D34042534000229C4603098B42C5
:100360002DD3030A8B4212D3FC22890112BA030A4D
:100370008B420CD3890192118B4208D389019211CF
:100380008B4204D389013AD0921100E08909C30954
:100390008B4201D3CB01C01A524183098B4201D356
:1003A0008B01C01A524143098B4201D34B01C01A41
:1003B000524103098B4201D30B01C01A5241C308B9
:1003C0008B4201D3CB00C01A524183088B4201D328
:1003D0008B00C01A5241D9D243088B4201D34B0043
:1003E000C01A5241411A00D20146634652415B1085
:1003F000104601D34042002B00D549427047634666
:100400005B1000D3404201B5002000F005F802BDAA
:100410000029F8D016E770477047C046002B11D16D
:10042000002A0FD1002900D1002802D00021C943A1
:10043000081C07B4024802A14018029003BDC04640
:10044000D9FFFFFF03B4684601B5029800F006F833
:10045000019B9E4602B00CBC7047C046F0B55746A3
:100460004E464546DE46E0B5040083B00D00924698
:1004700099468B422FD82CD04946504600F0AEF812
:1004800029000600200000F0A9F8331A9846203B06
:100490009B4600D574E053465A4693401F0053468E
:1004A000424693401E00AF4229D826D05B46A41B8B
:1004B000BD41002B00DA79E0002200230092019375
:1004C00001235A46934001930123424693400093EF
:1004D00019E08242D0D900220023009201930C9BA4
:1004E000002B01D01C605D600098019903B03CBCFA
:1004F00090469946A246AB46F0BDA342D6D900220B
:100500000023009201934346002BE8D0FB077208BA
:100510001A4346467B080EE0AB4201D1A2420CD8FA
:10052000A41A9D41012024196D410021013E241887
:100530004D41002E06D0AB42EED9013E24196D414B
:10054000002EF8D15B460098019900196941002BF3
:1005500022DB2B005A46D3402A004446E2401C00CE
:100560005B461500002B2CDB26009E403300260046
:100570004746BE403200801A994100900191AEE793
:10058000424620239B1A5246DA40414613004A460F
:100590008A4017001F4382E7424620239B1A2A0005
:1005A00046469A402300F3401343D5E742462023B2
:1005B00000219B1A0022009101920122DA4001924F
:1005C00082E74246202326009B1ADE402F00B446D5
:1005D000974066463B003343C9E7C04610B5002943
:1005E00003D100F007F8203002E0081C00F002F808
:1005F00010BDC0461C2101231B04984201D3000CEE
:1006000010391B0A984201D3000A08391B09984285
:1006100001D30009043902A2105C40187047C0469B
:1006200004030202010101010000000000000000BB
:10063000FA210A4B70B5890005001868FFF778FDAC
:1006400000F07AF804000120002C05D102382200C5
:10065000290000F037F8200070BDC0465805002082
:100660004023084A10B5116800200B431360FFF7C0
:10067000DFFF041E03D103F0DDF9200010BD0124CB
:10068000FBE7C04600200240024A136801331360B2
:100690007047C04618060020014B18687047C046D6
:1006A0001806002070B50400FFF7F6FF631C5A1E01
:1006B00093410500E418FFF7EFFF401B8442FAD88E
:1006C00070BD000070B58901002814DA0F23C0B294
:1006D0000340083B114A9B089B009B1803221040D3
:1006E0009040FC321500114085408140DC69AC43EC
:1006F0002143D96170BD032583082840A840FC35FB
:100700002E00074A9B009B18C0228640294081404A
:1007100092009C58B44321439950EBE700ED00E070
:1007200000E100E01F2318401E3B8340014A136094
:100730007047C04600E100E0094A431E0120934291
:100740000DD8C021074A08485360036A09061B02F6
:100750001B0A0B430362002007239060136070475D
:10076000FFFFFF0010E000E000ED00E0F8B504003E
:100770000120002C35D025681A4B1421E818FFF70A
:10078000D7FC194B800023640223A21D6064D37739
:100790002E68164BA1681E40E36827690B433B4354
:1007A00067693B43A7693B43E7693B43276A3B4390
:1007B00033432B608023DB0199420CD01C25284059
:1007C0000D3D85400A490B68AB430B6063680D68BB
:1007D00083402B430B6000200123E0630534D37773
:1007E000E077F8BDF8FFFDBF000002400F80FFFF7B
:1007F000A8000240F7B5461DF57F0224012D2AD03E
:100800000125F577851DAC46ED7F0027EDB2012D62
:100810002DD16646F4770468C76326681C37AE435B
:100820002660066C0196466C3740BD40019E75609F
:10083000636083680568102B0FD1A260E160036BD1
:10084000002B0DD00E2322681343236001230024C4
:100850002A6813432B602000FEBDA160E260EEE732
:10086000042223689343236022680A23ECE7F77786
:10087000F1E770B5841DE37F022B04D00423C3632A
:10088000033B180070BD0E210368456C1A688A434B
:100890001A6001221968914319601C232B4015002E
:1008A0009D40016C431D4D60E2770024826BDC7734
:1008B0001300A242E5D090472300E2E7F8B51C22DE
:1008C0000427466C016C32403E0096400D68036878
:1008D0001C682E420DD03C420BD01A68920602D4FE
:1008E0001A68BA431A60036B4E60002B19D0984700
:1008F00017E002273E0096402E4213D03C4211D012
:100900001A68920606D40A241A68A2431A600122C1
:10091000831DDA770022431D4E60DA77C36A934263
:10092000E5D1F8BD0826370097403D42F9D0344262
:10093000F7D00E251C68AC431C6001231C009440BA
:10094000821D4C60C363D3770022431DDA77436B6B
:10095000E5E70000F0B5534A0B688218541EA24127
:1009600085B00193002305320392019ADA4001D148
:1009700005B0F0BD01259D40019A2A40009200D1AA
:100980008DE04A6894461022644694432200013C5C
:10099000022A1FD107240F271C40A400A740DA0811
:1009A00092008218166ABE430F69A7403E43166242
:1009B00003245E00B4408268A243CC68B440224362
:1009C00082606246D206D20F9A404468AC4322430A
:1009D000426001E0012CEBD9032634005D00AC40FD
:1009E0006246E4433240AA40076827403A43026027
:1009F000C26814408A68AA4014436246C460D200A8
:100A00004DD50125284C0F27626B2A431D00354028
:100A1000AD00AF406263254A9C08A400A418A268F8
:100A2000BA43A0270292FF050022B8420CD0204F03
:100A30000132B84208D01F4F0132B84204D01E4FD5
:100A40003200B84200D0039AAA406746029D2A436A
:100A5000A2601A4A009C1668009DE4433543FF03D8
:100A600001D435002540674615605668009D354322
:100A7000BF0301D435002540674655609668009D48
:100A80003543FF0201D43500254067469560D5689F
:100A9000009E2E43BF0201D425402E00D6600133B4
:100AA00063E7C04600E4FFAF0010024000000140D1
:100AB0000004005000080050000C005000040140E9
:100AC000002A01D0816170478162FCE7044B10B5B8
:100AD0005A69104202D0586102F004FD10BDC046B0
:100AE0000004014003689A69920701D500229A62C6
:100AF00001229969114202D199690A439A617047AA
:100B000070B5049E89053343890D19438023046819
:100B1000DB00700D1840044B6568120418438543D0
:100B200011432943616070BDFF63FF03F8B5040002
:100B30000E0017001D002268936933409B1B594229
:100B40004B41BB4201D0002017E06B1CF4D0FFF7F3
:100B5000A3FD069BC01A854201D3002DEBD12022B4
:100B6000636C012013436364230041331A70220035
:100B700000234232403413702370F8BDF8B5036887
:100B80000400986910230E00170018402025002843
:100B900018D1F8BD721C16D0FFF77EFDC01B86422F
:100BA00001D3002E0ED12022636C13436364230013
:100BB00041331A7022000023423240341370012066
:100BC0002370E6E723689A692A42E3D010222000C6
:100BD000DA61DD61FFF786FF2268064953680B4042
:100BE00053600423626C13436364230041331D701C
:100BF000E0E7C04600E800FEF8B504000D0016006E
:100C0000022723689B693B4201D00020F8BD3200D7
:100C100029002000FFF7B2FF002815D16B1CF0D08F
:100C2000FFF73AFD801B854201D3002DE9D1202238
:100C3000636C13436364230041331A702200002362
:100C400042324034137023700120DFE7F8B504000E
:100C50000D001600202723689B693B4201D000202D
:100C6000F8BD320029002000FFF788FF002813D1CB
:100C7000FFF712FD801B854201D3002DEBD120220E
:100C8000636C13436364230041331A702200002312
:100C900042324034137023700120E1E7F8B50400BC
:100CA0000D001700042623689B69334211D13A00D6
:100CB00029002000FFF762FF00281AD120212368B5
:100CC0009A690A4217D09A69324204D0228D002ACA
:100CD00001D00020F8BD2021D9615A680E48024099
:100CE0005A60220000234132636411704034537013
:100CF00023700120EEE7FFF7CFFCC01B854201D334
:100D0000002DD0D12022636C134363642300413350
:100D10001A7040340023EBE700E800FE70B50400D1
:100D20000120002C3FD0250041352B78DBB2002B71
:100D300005D1220040321370200002F089FE2423E6
:100D400001212B702368E0681A68A6688A431A603C
:100D500061681A4A0A401A619968194A11409960F3
:100D6000012821D180210902314399605868154931
:100D700001435960D96800200A40DA60616922693C
:100D80000A43A16909020A43DA60216AE2690A4357
:100D90001A60012219680A431A60202360642B70CC
:100DA00020634234207070BD842109023143996070
:100DB0000228DBD1802109015960D7E7FFFFFFF04E
:100DC000FF7FFFFF00800002F0B5050087B00391B0
:100DD0000492059341352B7804000220202B14D176
:100DE000230040331A78012A0FD001261E70FFF726
:100DF00053FC8021070000901923320009022000D3
:100E0000FFF794FE002802D0012007B0F0BD212397
:100E10002B702500113B42352B70049B606463628C
:100E20006B469B8A60636385628D304BFF2A21D9B4
:100E3000FF222285009380235B0403992000FFF7A3
:100E40005FFEFF26638D3A000C992000002B19D11C
:100E5000FFF7FCFE0028D7D120212368244ED9615A
:100E60005A6832405A602300403441331970287068
:100E70002070CAE7628D92B2228500938023D2B29D
:100E80009B04DAE7FFF7B8FE0028BDD1636A226849
:100E90001978013391626362638D228D013B9BB2AD
:100EA0006385013A638D92B22285002BCAD0002A55
:100EB000C8D100970C9B80212000FFF737FE002847
:100EC000A2D1638DFF2B09D98023FF2226855B04E5
:100ED000009003992000FFF713FEB3E78023628D93
:100EE0009B0492B22285D2B20090F2E700200080EB
:100EF00000E800FEF0B5050087B003910492059369
:100F000041352B7804000220202B14D123004033DC
:100F10001A78012A0FD001261E70FFF7BDFB802131
:100F2000070000901923320009022000FFF7FEFDA0
:100F3000002802D0012007B0F0BD22232B7025002D
:100F4000123B42352B70049B606463626B469B8A44
:100F500060636385628D314BFF2A21D9FF22228590
:100F6000009380235B0403992000FFF7C9FDFF264F
:100F7000638D3A000C992000002B19D1FFF766FE13
:100F80000028D7D120212368254ED9615A683240E4
:100F90005A60230040344133197028702070CAE72A
:100FA000628D92B2228500938023D2B29B04DAE74D
:100FB000FFF774FE0028BDD12368626A5B6A137074
:100FC000636A228D01336362638D013A013B9BB2F8
:100FD0006385638D92B22285002BC9D0002AC7D1C8
:100FE00000970C9B80212000FFF7A0FD0028A1D1D5
:100FF000638DFF2B09D98023FF2226855B04009097
:1010000003992000FFF77CFDB2E78023628D9B04EB
:1010100092B22285D2B20090F2E7C046002400804E
:1010200000E800FEF0B50400413422780300D2B29B
:101030000220202A18D11D0040352E78012E13D011
:101040001B68223020701E68233886431E601E688D
:10105000064F3E401E601E68314319601968084300
:101060001860002022702870F0BDC046FFEFFFFF1F
:10107000F0B5050041352A780300D2B20220202ABB
:1010800017D11C0040342678012E12D01B68223064
:1010900028701E68233886431E601E68054F0902AB
:1010A0003E403143196019680843186000202A70D7
:1010B0002070F0BDFFF0FFFF0C22184B10B5D9686F
:1010C0000A40082A26D00C2A06D0042A1AD11B6806
:1010D000DB0621D4124810BD8A021248120F825C2E
:1010E0000902D868890F0131C00304D50E48504366
:1010F000FFF71EF8EFE71B68DB0601D50B48F6E7A4
:101100000748F4E780205B6800021B045B0F013393
:101110009840E0E70448DEE70448DCE700100240BE
:101120000024F400483E000800127A0000093D0047
:10113000F0B5050087B0002802D1012007B0F0BD4E
:101140000C23BE4CE668E2681E4080235B021A4016
:1011500001920268D20741D42B689B0700D587E033
:101160002B68DB0628D5002E00D0D9E023689B052C
:1011700002D5EB69002BE0D06268B1496B6A0A4086
:101180001A43626061682A6A0902090A12060A4360
:10119000626080225B0B013312029A401300E16807
:1011A00000200A06A749120F8A5CD340A64A1360A2
:1011B000FFF73EFA0028C1D12B681B0700D5E6E0F7
:1011C0002B685B0700D508E12B689B0600D58DE1F5
:1011D000AB6A002B00D0BCE10020AFE7082E04D0A2
:1011E0000C2E09D1019A002A06D023689B03B3D59F
:1011F0006B68002BB0D1A0E76A689A4211D12268CF
:1012000013432360FFF748FA070080222368920205
:101210001342A1D1FFF740FAC01B6428F5D903207F
:101220008CE7A021C9028A4205D180222168D2021E
:101230000A432260E3E72168844801402160216875
:101240000B400593059B824923680B402360002ACD
:10125000D8D1FFF721FA07008022236892021342B7
:1012600000D179E7FFF718FAC01B6428F4D9D6E754
:10127000EA68042E04D00C2E25D1019B002B22D12C
:1012800023685B0702D5002A00D156E761682B6905
:1012900070481B0201400B430921636023688B43A4
:1012A00013432360FFF708FFE368664A1B061B0F22
:1012B000D35CD840644B18600020FFF7B9F90028D0
:1012C00000D14DE73AE72368002A18D009218B4363
:1012D00013432360FFF7E0F9070004222368134259
:1012E00007D062682B695B491B020A4013436360A5
:1012F00036E7FFF7D1F9C01B0228EED98FE70122AC
:1013000093432360FFF7C8F90700042223681342C0
:1013100000D125E7FFF7C0F9C01B0228F5D97EE709
:10132000EB69002B20D0802322685B0013432360ED
:10133000FFF7B2F9070080222368920013420DD014
:1013400063683F4A13406A6A1343636062682B6AAA
:1013500012021B06120A134363602DE7FFF79CF984
:10136000C01B0228E7D95AE723683B4A1340236091
:10137000FFF792F90700802223689200134200D100
:101380001AE7FFF789F9C01B0228F4D947E76A6911
:101390000123002A10D0226D13432365FFF77CF947
:1013A00007000222236D134200D009E7FFF774F90A
:1013B000C01B0228F5D932E7226D9A432265FFF758
:1013C0006BF907000222236D134200D1F8E6FFF704
:1013D00063F9C01B0228F5D921E780230021A26B05
:1013E0005B0501911A4204D1A26B1343A36301234D
:1013F00001938022194F52003B68134208D080228B
:10140000AB68520093422BD1226D134323654CE00D
:1014100080223B68520013433B60FFF73DF9802375
:101420005B00029003933B68039A1342E7D1FFF7F6
:1014300033F9029BC01A6428F5D9F0E60010024087
:10144000FF1FFFFF303E000858050020FFFFFEFF92
:10145000FFFFFBFFFFE0FFFFFFFEFFFF007000400C
:10146000002B16D1236D6C4A13402365236D6B4A04
:1014700013402365FFF710F907008022236D9200C7
:1014800013422AD0FFF708F9654BC01B9842F4D9E4
:10149000C5E6A021C9008B420BD18023216DDB0062
:1014A0000B432365236D1A432265FFF7F5F8070008
:1014B0000EE0236D584A13402365236D574A1340AD
:1014C000A4E7FFF7E9F8564BC01B984200D9A6E6FF
:1014D0008022236D92001342F3D0019B012B00D098
:1014E00072E6A36B4F4A1340A3636DE6A96901231B
:1014F0004D4A002918D0A1681943A160616B0B43C4
:1015000063638023116A9B010B431362FFF7C4F8E6
:1015100007000222A368134200D059E6FFF7BCF887
:10152000C01B0228F5D97AE6A1689943A160136A25
:101530003E490B401362FFF7AFF807000222A36891
:10154000134200D144E6FFF7A7F8C01B0228F5D9E3
:1015500065E60C2E43D0364A022B2ED12368802616
:1015600013402360FFF798F80700B604236833425E
:101570001DD1296BEB6AE2680B432E490A401343E5
:101580006A6B80251343E360802322685B04134366
:101590002360FFF781F80600AD0423682B4200D0DA
:1015A0001AE6FFF779F8801B0228F6D937E6FFF72D
:1015B00073F8C01B0228D9D931E62368802513406F
:1015C0002360FFF769F80600AD0423682B4200D1C1
:1015D00002E6FFF761F8801B0228F6D91FE6180023
:1015E000012B00D1AAE58022E368E96A52021A4081
:1015F00001208A4200D0A1E5F022296B92031A4013
:101600008A4200D09AE5C02000040340686B181A93
:10161000431E9841C0B291E5FFFEFFFFFFFBFFFFB5
:1016200088130000FFFFFFEF00000140FFDFFFFF16
:10163000FFFFFFFEFFFF02FFF7B5061E019101D17C
:101640000120FEBD0122514C0199236813408B42B9
:1016500027D3326893072FD4D30735D401232268C8
:1016600001991A40914200D281E03268484C5307F8
:1016700000D584E0130706D5E26833694549DB00ED
:101680000A401343E360FFF717FDE368424A1B0675
:101690001B0FD35CD840414B18600020FEF7C8FFF9
:1016A000CFE72368019993430B43236023681340DA
:1016B000019A9A42C4D1CCE7F0203549CB688343E4
:1016C000B0680343CB60C7E7314D72682B68022ACC
:1016D00019D19B03B4D50321EB688B431343EB6013
:1016E000FEF7DAFF73680700022B19D10C22EB68B2
:1016F0001340082BB2D0FEF7CFFF294BC01B9842F6
:10170000F4D903209DE7032A02D19B01E3D497E794
:10171000012A02D15B07DED492E79B05DBD48FE779
:10172000032B0BD10C22EB681340934296D0FEF7AB
:10173000B3FF1B4BC01B9842F4D9E2E7012B10D03A
:101740000C22EB68134289D0FEF7A6FF144BC01B96
:101750009842F5D9D5E7FEF79FFF114BC01B984281
:10176000CFD80C22EB681340042BF4D176E7226823
:101770009A43226022681A4200D061E775E7E36865
:1017800008490B40F1680B43E36073E70020024017
:1017900000100240FFC7FFFF303E00085805002040
:1017A00088130000FFF8FFFF044B054ADB685B0568
:1017B0005B0FD35C034A1068D840704700100240AA
:1017C000403E000858050020044B054ADB689B0496
:1017D0005B0FD35C034A1068D8407047001002408A
:1017E000403E0008580500208223F7B502681B011F
:1017F00005001A4247D0802300215F4C5B05A26B95
:1018000000911A4204D1A26B1343A36301230093F6
:1018100080275A4E7F0033683B426DD06968C022F2
:1018200008002368920313401040834203D1A86844
:101830000240934209D0C0230A009B021A409A42F8
:1018400003D1236801209B0366D4C022236D92023A
:10185000134062D16968C0230A009B021A409A4271
:1018600007D1236846480340C020800301400B4352
:101870002360236D1A43009B2265012B03D1A36BC8
:10188000404A1340A3632B68DA0706D503203A4980
:10189000CA6C8243E8680243CA649A0706D50C20E2
:1018A0003549CA6C824328690243CA645A0706D57F
:1018B00031493548CA6C024068690243CA641A0754
:1018C00006D52D493148CA6C0240A8690243CA6452
:1018D0005A0606D528492E48CA6C0240286A024397
:1018E000CA6400201B0617D5234A2A49D36C0B4033
:1018F000E9690B43D3640FE033683B433360FEF781
:10190000CBFE019033683B4288D1FEF7C5FE019BB8
:10191000C01A6428F6D90320FEBD11408B4202D0C4
:101920002968890608D4A9680A40934200D191E742
:101930002B681B0500D48DE78022216D206D1203DA
:1019400002432265226D144B14480B40024022656D
:101950002365CB0500D47DE7FEF79EFE80270600B9
:10196000BF00236D3B4200D074E7FEF795FE0C4BA1
:10197000801B9842F5D9CEE700100240007000406D
:10198000FFFFCFFFFFFFFFEFFFF3FFFFFFCFFFFFE3
:10199000FFFFFFFBFFFFF3FFFFFFFCFFFFFFF7FF72
:1019A00088130000F8B504000D0016001F0022681F
:1019B00093682B409D4201D0002031E0731CF7D08A
:1019C000FEF76AFEC01B8642F1D8E02123685A6800
:1019D0008A435A6082226168520091420CD1802170
:1019E000A26809028A4203D08021C9008A4203D139
:1019F00040211A688A431A608021A26A89018A42BA
:101A000006D1196807480140196019680A431A602D
:101A10002300012251331A70002303205034237015
:101A2000F8BDC046FFDFFFFFF8B5130082220400B7
:101A30004068520090421ED180208025A26800029A
:101A4000ED00824201D0AA4206D1402726683068C4
:101A5000B8433060AA420ED00A0080212000FFF770
:101A6000A1FF002801D10020F8BD2023626D0320D2
:101A700013436365F8E70A000121EFE713008222B0
:101A800010B5040040685200904208D10A0080213D
:101A90002000FFF787FF002809D1002010BD220099
:101AA00051321278052AF8D10A000121F0E72023EB
:101AB000626D032013436365F0E7000070B5040016
:101AC0000120002C37D000232500A36251352B784C
:101AD000DBB2002B05D1220050321370200001F040
:101AE000E7FF0223402221682B700B68A068934314
:101AF0000B606368A2690343E06803432069034302
:101B000060690343E0690343206A0343A06A034317
:101B100080208000104003430B600423120C1A4005
:101B2000636A00201A434A60CB69034A1340CB61C1
:101B3000012360652B7070BDFFF7FFFFF0B587B024
:101B400001930300503303931B7804000E00170029
:101B50000225012B79D00123039A1370FEF79CFD17
:101B60002200029051321378DBB2012B67D11D00A5
:101B7000002E64D0002F62D00233137000236365FF
:101B8000A363E786A387E387636423648023A26853
:101B90002663A7861B029A4205D180232268DB01B7
:101BA00011680B431360402223681968114202D167
:101BB00019680A431A608021E06809016268884256
:101BC00046D1002A01D0012F07D132880236DA60CF
:101BD000E38E2663013B9BB2E3860225E38E002B56
:101BE00015D1029A01992000FFF748FF002859D12A
:101BF000A368002B06D105932368DA6805929B68D9
:101C00000593059B656D6B1E9D41EDB217E0226843
:101C100093682B4209D0236B19880233D160236368
:101C2000E38E013B9BB2E386D8E7FEF735FD029BCE
:101C3000C01A019B9842D1D30133CFD00325012391
:101C4000513423700023039A1370280007B0F0BDAD
:101C5000002A01D0012F08D132781A73236B013387
:101C60002363E38E013B9BB2E3860225E38E002BC8
:101C7000B7D023689A682A420AD0226B12781A7366
:101C8000236B01332363E38E013B9BB2E386EDE7D5
:101C9000FEF702FD029BC01A019B8342E6D8013386
:101CA000E4D0CBE720236365A2E7F0B51F00030073
:101CB00085B0019250331A7804000E000225012AE3
:101CC00000D19BE001221A70FEF7E6FC2300009091
:101CD00051331B786168DBB2012B0BD0822252009A
:101CE000914200D083E0A268002A00D07FE0042B5C
:101CF00000D07CE00125002E00D178E0019B002B74
:101D000075D0002F73D0230051331A78042A01D0E4
:101D100005221A700023019A6365A263402223649E
:101D200063642368E787E7861868A7872663A78622
:101D3000104202D1186802431A608022E068120142
:101D400090425ED1002901D0012F07D1328802369E
:101D5000DA60E38E2663013B9BB2E386012502270E
:101D60002E00E38E002B15D1E38F002B12D1009AA9
:101D70000A992000FFF782FE051E00D087E0A368C5
:101D8000002B34D123680390DA6803929B68039395
:101D9000039B2CE0226893683B420ED0E38E002B1D
:101DA0000BD0012D09D10025236B19880233D16096
:101DB0002363E38E013B9BB2E386936833420CD0EE
:101DC000E38F002B09D03500D268A36B1A80023351
:101DD000A363E38F013B9BB2E387FEF75DFC009BAF
:101DE000C01A0A9B8342BCD80133BAD00325230012
:101DF000012251331A70002350342370280005B09B
:101E0000F0BD002901D0012F08D132781A73236B5D
:101E100001332363E38E013B9BB2E3860125022756
:101E20002E00E38E002B02D1E38F002B9FD023687E
:101E30009A683A420FD0E28E002A0CD0012D0AD1C6
:101E40000025226B12781A73236B01332363E38E10
:101E5000013B9BB2E38623689A6832420DD0E28F41
:101E6000002A0AD03500DB68A26B1370A36B013324
:101E7000A363E38F013B9BB2E387FEF70DFC009B5E
:101E8000C01A0A9B8342CCD80133CAD0AEE72023C4
:101E900001256365ABE70000F0B51E008223170043
:101EA000426887B0040002915B009A420FD18368B8
:101EB000002B0CD10300042251331A7000963B0012
:101EC0000A00FFF7F2FE0500280007B0F0BD23006E
:101ED000503304931B780225012BF5D00123049A7B
:101EE0001370FEF7D9FB23005133039005931B7841
:101EF000DBB2012B4FD1029A1D00002A4BD0002FDC
:101F000049D0059A03331370029A0023A2638022FA
:101F1000A16863652363E787A386E386236463641C
:101F2000A78712022368914203D11A682C490A40FC
:101F30001A6040221968114202D119680A431A60D6
:101F4000E3680125002B3AD1E38F002B0BD1039AD4
:101F500031002000FFF768FD00283DD1656D6B1E44
:101F60009D41EDB217E023689A682A420AD01B7B94
:101F7000A26B1370A36B0133A363E38F013B9BB28E
:101F8000E387E1E7FEF788FB039BC01A8642DBD8B4
:101F9000731CD9D003250123059A13700023049ADA
:101FA000137091E7226893682B420CD0D268A36B20
:101FB0001A800233A363E38F013B9BB2E387E38F75
:101FC000002BEFD1C3E7FEF767FB039BC01A8642E5
:101FD000F5D8731CF3D0DDE720236365BEE7C04668
:101FE000FFBFFFFF51300078C0B270470368074958
:101FF0001A680A401A609A682331FF318A439A604E
:1020000020238367002303667047C046DFFEFFFF7F
:10201000F8B51300826F05000220202A37D101385D
:10202000002934D0002B32D08022AC685201944277
:1020300004D12A69002A01D1014228D12E0070362C
:1020400032780220012A22D02A000124583234702A
:102050000027696513802222E86EEF67AA67B842FD
:1020600016D0144A8763C262134A0263134A42635A
:102070002A68243294460A006146FEF7BBFBB84248
:1020800006D010232000EB67DB1837706B67F8BDB4
:10209000802200202B685200196830700A431A60B1
:1020A000012299680A439A60402299680A439A601B
:1020B000EDE7C046C52000080721000813210008ED
:1020C000704700000368826A20201B6810B5034037
:1020D00011D111005A310B801368094C1968214045
:1020E000196099680334FF34A143996099683F34BB
:1020F000A14399609067100001F0CEF910BDC04671
:10210000FFFEFFFF704710B5806AFFF7FBFF10BDB1
:10211000704710B5846A2368626FA16F98680006E3
:102120000BD5212A09D122000020523210801A68D2
:10213000C03082431A60202262679B685B0608D524
:10214000222906D1230000225A331A802000FFF7EB
:102150004DFF1023E26F20001343E367FFF7D8FF22
:1021600010BD0000F8B503680400DA6918689E68BD
:1021700011070AD120210A4200D16AE0084268D042
:10218000236E2000002B5AD15AE0012135000D406A
:1021900003D190277F0038425BD00A4205D0C605A4
:1021A00003D51962E66F3143E16702210A4206D086
:1021B000002D04D01962E66F49183143E16704210C
:1021C0000A4206D0002D04D01962E66F023931436D
:1021D000E167110708D5810601D4002D04D008213C
:1021E0001962E36F1943E167E36F002B28D02023C6
:1021F0001A4206D0184204D0236E002B01D02000D2
:1022000098472368E56F9B6820005B0602D408238B
:102210001D401AD0FFF7EAFE402123689A680A425F
:102220000FD09A68E06E8A439A60002809D01A4B52
:102230008363FEF71EFB002802D0E06E836B984795
:10224000F8BD2000FFF764FFFAE7FFF761FFE567DD
:10225000F6E7802149030A4206D0750204D51962C7
:10226000200000F0A7FAEBE780210A4203D00842E1
:1022700001D0636E85E740210A42E1D00842DFD0F9
:102280001A6820008A431A6020236367002363666C
:10229000FFF716FFD4E7C0469D220008806A00239E
:1022A000020010B55A321380083A1380FFF730FF4E
:1022B00010BD0000F8B504002569A26803682A4330
:1022C0006569C1692A431868794D0A432840024369
:1022D0001A605A687748784D0240E06802435A60B5
:1022E000A069AB4201D0226A10439A68734E324013
:1022F00002439A60724A934213D10322714BDB6C02
:102300001340714AD05C80231B02994200D092E0B6
:1023100008281ED8FDF702FF5860631D841D1D1D8F
:1023200087006A4A934205D10C22664BDB6C13404E
:10233000674AE7E7AB4200D0B3E0C0218020614AA2
:102340000901D36CC0000B40834238D003D8002B66
:102350000AD001250DE08020000183420ED08B427F
:10236000F7D1802000020DE0FFF71EFA0025A842F9
:1023700008D10023280023666366F8BD1368DB06D6
:1023800020D55448032263685A438242E1D81A0395
:102390008242DED30027020E01025E0889197A41CB
:1023A000080011001A003B00FEF738F84A4BC2182B
:1023B0004A4B9A42CDD823683D00D860D9E7FEF752
:1023C0007BFED3E74648DDE7FFF7EEF963684000A0
:1023D0005B08C01861680BE0FFF7F6F9F6E7102517
:1023E000384B61681A684808154006D03D4BC01844
:1023F000FDF79EFE002583B204E03B4BC018FDF7BD
:1024000097FE83B21900394810398142A1D80F21B3
:1024100018001B0788435B0F21680343CB60A8E7C4
:10242000FEF74AFED2E76368580880235B02D0E7D4
:1024300001250023E6E7082837D8FDF76FFE050CD5
:102440000F362A3636362D00FFF7AEF963685B0883
:10245000C01861680BE0FFF7B7F9F7E71025194BD3
:1024600061681A68480815400DD01A4BC018FDF76E
:102470005FFE002583B219001C481039814200D943
:1024800067E72168CAE7164BC018FDF751FE83B213
:10249000F1E7FEF711FED9E76368580880231B02B5
:1024A000D6E780231B029942C2D001250023E2E730
:1024B000F369FFEFFFCFFFFF00480040FFF4FFFF8D
:1024C0000038014000100240C63D000800440040B2
:1024D000CA3D000800093D0000FDFFFFFFFC0F00A2
:1024E0000024F40000127A000048E801EFFF000029
:1024F000436A30B5DA0706D50168284C4A6822409D
:10250000846A22434A609A0706D50168244C4A68C7
:102510002240C46A22434A605A0706D50168214C0A
:102520004A682240046B22434A601A0706D50168B4
:102530001D4C4A682240446B22434A60DA0606D5A5
:1025400001681A4C8A682240846B22438A609A068A
:1025500006D50168164C8A682240C46B22438A6003
:102560005A0610D50168134D4A68046C2A4022436C
:102570004A6080225203944205D14A680E4C2240A0
:10258000446C22434A601B0606D502680B49536817
:102590000B40816C0B43536030BDC046FFFFFDFF15
:1025A000FFFFFEFFFFFFFBFFFF7FFFFFFFEFFFFFD0
:1025B000FFDFFFFFFFFFEFFFFFFF9FFFFFFFF7FFC3
:1025C000F8B504000E0015001F002268D3693340DF
:1025D0009B1B59424B41AB4201D000201BE0069BA4
:1025E0000133F3D0FEF758F8069BC01B834201D39A
:1025F000002BEAD1236808491A6803200A401A60B0
:102600009A68A331FF318A439A6020236367A367E6
:10261000002370342370F8BD5FFEFFFFF0B587B074
:102620000593436F04000D0017000220202B49D1B1
:102630000138002946D0002A44D08023A2685B01DB
:102640009A4204D12369002B01D101423AD12300DF
:1026500070331A780220012A34D0012200261A7021
:102660002123E6676367FEF717F8230050331F80C6
:10267000023303931F808023A26804905B019A4277
:1026800004D12369B34201D12E001D00230052332F
:102690001A88059B92B20093049B002A0AD140211C
:1026A0002000FFF78DFF00280BD1202370346360DA
:1026B000207007E0002280212000FFF781FF002822
:1026C00002D0032007B0F0BD2268002D0BD1338863
:1026D0000236DB05DB0D9362039B039A1B88013BEB
:1026E0009BB21380D2E72B7801359362F4E70000A8
:1026F00073B500260400C667FDF7CEFF236805000A
:102700001B681B0715D423681B685B070AD580214B
:102710000E4B00220093C9032B002000FFF750FF4F
:10272000002811D1202300206367A3677034207034
:102730000BE08021054B3200009389030300200049
:10274000FFF73EFF0028DED0032076BDFFFFFF012C
:1027500010B5041E01D1012010BD436F002B04D120
:1027600002007032137001F0EDF924230121226878
:102770006367136820008B431360FFF79BFD0128FC
:10278000E9D0636A002B02D02000FFF7B1FE236876
:1027900007495A6820000A402A215A609A688A43E9
:1027A0009A60012219680A431A60FFF7A1FFD3E774
:1027B000FFB7FFFF7047000070B5FA250A4CAD0067
:1027C0002B00132209492000FFF728FF2B001422B9
:1027D00007492000FFF722FF2B0034220549200083
:1027E000FFF71CFF70BDC0465C07002014000020EE
:1027F0000000002027000020F7B533490622684674
:1028000001F092FA31496846FDF77EFC002801D0BC
:102810000020FEBD03002E492E4D2F4E2F4F0A786B
:102820000A2A1CD02C2A03D1002001330131F6E7FB
:102830002B4C022B0FD0032B02D13A540130F5E779
:10284000042B01D13254F9E7052B01D12A54F5E7C5
:10285000062B02D1234C2254F0E7062BE6DD214E55
:102860003378302BD4D000231B4A1F4C93721C4961
:10287000184A1A4F20004B727B705370737001F02E
:1028800071FA1A4D2000290001F05FFA390020008A
:1028900001F05BFA2900200001F057FA0E492000F0
:1028A00001F053FA2900200001F04FFA09492000F5
:1028B00001F04BFA2900200001F047FA3100200016
:1028C00001F043FA0120A4E783050020D73D00086A
:1028D000890500209C080020290800209E0800206F
:1028E00036080020340800200E080020DE3D0008D5
:1028F00070B58026124D3602310028000022114C9E
:10290000FEF7DEF80A20FDF7CDFE00222021200090
:10291000FEF7D6F80320FDF7C5FE3100280001229E
:10292000FEF7CEF80520FDF7BDFE01222021200094
:10293000FEF7C6F8FA208000FDF7B4FE70BDC04671
:1029400000080050000400507FB51422002101A8A7
:1029500001F0F3F980231B020193094B01A90293B3
:10296000022308480493FDF7F5FF00220720110019
:10297000FDF7A8FE0720FDF7D5FE07B000BDC04655
:1029800000002110000800507FB50F25FD23020034
:10299000FA206D442B70184C8BB2184980000988BE
:1029A00000902000FEF710FA220041321378202B0D
:1029B000FCD1134B2A001988FA239B0000932000B6
:1029C0000123FEF797FA220041321378202BFCD125
:1029D000FA26B6002878FE2801D004B070BD2A007F
:1029E00000960123AB212000FEF784FA2200413239
:1029F0001378202BFCD1EDE7C806002060000020F2
:102A00005E00002010B5264C86B0210003220D3157
:102A100001A801F089F9032101A8FFF7B5FF0028FB
:102A200003D00124200006B010BD21000322103184
:102A300002A801F079F9032102A8FFF7A5FF0028F9
:102A4000EFD121000322133103A801F06DF9032116
:102A500003A8FFF799FF0028E3D11430FDF722FE09
:102A600021000322163104A801F05EF9032104A815
:102A7000FFF78AFF0028D4D12830FDF713FE21008C
:102A80000322193105A801F04FF9032105A8FFF72A
:102A90007BFF041EC5D12820FDF704FEC2E7C04617
:102AA0008C3D000873B5FA25174C1600174AAD0087
:102AB0008BB21188020000952000FEF785F92200F4
:102AC00041321378202BFCD1114B320019882000A1
:102AD00000950223FEF70EFA220041321378202BD4
:102AE000FCD1FA25AD003378FE2B00D073BD320047
:102AF00000950223AB212000FEF7FCF922004132B1
:102B00001378202BFCD1EEE7C806002060000020DF
:102B10005E0000207FB5134E032531002A002231CC
:102B200002A801F001F9310001AC25310222200098
:102B300001F0FAF82200290002A8FFF7B3FF23787A
:102B4000002B0DD18022637803A81343403A027012
:102B50000421373A637045708270C370FFF714FF29
:102B60007FBDC0468C3D000830B51B4D03242900B5
:102B700085B02231220001A801F0D6F829000222F6
:102B80002531684601F0D0F86A46210001A8FFF718
:102B900089FF6B461B78002B1BD16B467F225B782D
:102BA00003A813406A465370402204210270373A4A
:102BB00044708270C370FFF7E7FE002809D1290036
:102BC0002200193102A801F0AFF8210002A8FFF796
:102BD000DBFE05B030BDC0468C3D000873B5FA255C
:102BE000104C1600104AAD008BB2118802000095FF
:102BF0002000FEF7E9F8220041321378202BFCD1A7
:102C00000A4B20001988320000951F23FEF772F945
:102C100041342378202BFCD1307843425841C0B254
:102C200076BDC046C8060020600000205E0000207F
:102C30000023F0B5354E87B002AD253601AF022234
:102C40003100040028003B707B7001F06DF82A0011
:102C500002213800FFF726FF2B78002B4BD16A7832
:102C6000082A48D103AF04AD0A3231003A70280077
:102C7000103A7B7001F058F82A0002213800FFF763
:102C800011FF2E78002E36D16A78214B1F491A7019
:102C90002731022205A801F047F82200022105A8E9
:102CA000FFF79CFF002826D06078A3780002184325
:102CB0000A21FDF7C7FA174B85B21D80E278164B43
:102CC00020791A706379000218430A21FDF7BAFAD5
:102CD000124B80B21880A279114B333D1A70CB2D64
:102CE00009D83338312806D80E4A13780133DBB2BD
:102CF0000A2B03D81370012007B0F0BD1670012213
:102D0000094B1A70FFF706FFF5E7C0468C3D000837
:102D10005C000020CA0500207E0500208005002000
:102D200082050020780500207D050020F7B56B4660
:102D30009D1D80235B4218436B46DE1D2870317059
:102D4000154C2000FFF74EF907000128F8D1A0200C
:102D500000221021C005FDF7B3FEFA233A009B00C4
:102D600029002000FEF7EAFE2000FFF73BF90200F1
:102D70000128F9D1FA2331009B002000FEF7DEFE86
:102D80002000FFF72FF902000128F9D1A02010211F
:102D9000C005FDF795FEF7BD40080020F7B56B466E
:102DA0009E1D7F2318406B46DD1D002330702B7065
:102DB000164C2000FFF716F907000128F8D1A020D3
:102DC00000221021C005FDF77BFEFA233A009B008C
:102DD00031002000FEF7B2FE2000FFF703F90200E9
:102DE0000128F9D1FA2329009B002000FFF754F8AD
:102DF0002000FFF7F7F802000128F9D1A0201021E8
:102E0000C005FDF75DFE2878FEBDC04640080020E5
:102E1000F0B585B002ABDD1D00230F0001902B70D3
:102E2000164C2000FFF7DEF806000128F8D1A0209C
:102E300000221021C005FDF743FEFA2332009B005B
:102E400029002000FEF77AFE2000FFF7CBF80128CA
:102E5000FAD1FA233A009B0001992000FFF71CF8F1
:102E60002000FFF7BFF802000128F9D1A0201021AF
:102E7000C005FDF725FE05B0F0BDC04640080020A6
:102E8000012110B50800FFF751FFFF211220FFF7C5
:102E90004DFF1220FFF782FF041E11D11020FFF713
:102EA0007DFF01000D20FFF741FF1320FFF776FFA4
:102EB00081B20848FFF7ACFF21000D20FFF736FF75
:102EC00005210120FFF732FF00214020FFF72EFFF0
:102ED00010BDC0461C060020F0B585B002AB9E1D9B
:102EE00080235B42184302ABDD1D00230091019259
:102EF00030702B70002A26D01B4C2000FFF772F890
:102F000007000128F8D1A02000221021C005FDF7FC
:102F1000D7FDFA233A009B0031002000FEF70EFE99
:102F20002000FFF75FF80128FAD1FA27009EBF00C2
:102F3000009B019AF31A9A4207DCA020012210217B
:102F4000C005FDF7BDFD05B0F0BD337801222B7043
:102F500029003B002000FEF7F1FD2000FFF742F8BA
:102F60000128FAD10136E3E74008002070B50C00D3
:102F7000012105000800FFF7D9FE00210D20FFF711
:102F8000D5FE1C4B00201978FFF7D0FE1A4B00200D
:102F90001978FFF7CBFE194B00201978FFF7C6FE12
:102FA000174B00201978FFF7C1FE220029000020EE
:102FB000FFF792FF211DC9B22220FFF7B7FEFF21C4
:102FC0001220FFF7B3FE03210120FFF7AFFE4021DF
:102FD0000800FFF7ABFE1220FFF7E0FE0828FAD149
:102FE00001210800FFF7A2FEFF211220FFF79EFE3D
:102FF00070BDC04663000020620000207A050020FA
:103000007905002010B5314C002201212000FDF788
:1030100057FD0A20FDF746FB012220001100FDF7B5
:103020004FFD0A20FDF73EFB80210120FFF77EFEC9
:1030300000210E20FFF77AFE00210F20FFF776FE19
:1030400072211D20FFF772FE74211E20FFF76EFE15
:1030500004212620FFF76AFE00212020FFF766FEEC
:1030600008212120FFF762FE6C210620FFF75EFE9B
:1030700080210720FFF75AFE00210820FFF756FEA7
:1030800004214D20FFF752FE88210920FFF74EFE54
:10309000E4210620FFF74AFEC0210720FFF746FE85
:1030A00000210820FFF742FE07214D20FFF73EFEDA
:1030B0008F210920FFF73AFE05210120FFF736FE98
:1030C00000214020FFF732FE10BDC0460004005032
:1030D00010B59CB0382200210EA800F02EFE14225C
:1030E0000021684600F029FE2422002105A800F0F6
:1030F00024FE1449144A0B6800241A4080231B0143
:1031000013430B6010230E930F3B1593A0230EA8BF
:103110001B02179316941894FEF70AF80F23210048
:10312000684600930194029403940494FEF784FA91
:10313000092305A8059308940B94FEF755FB1CB0D2
:1031400010BDC04600700040FFE7FFFFF0B591B032
:1031500009ADFDF785FAFFF7BBFF14220021280017
:1031600000F0EBFD0421B54E0227F26A80240A43E9
:10317000F2620122F36A24020B400693069BF36A73
:1031800021001343F362F36AAD4813400793079B92
:10319000F36A00223B43F362F36A3B400893089BC7
:1031A000FDF78EFCA02001221021C005FDF788FC50
:1031B00001222121A348FDF783FCA2210022C9019D
:1031C000A048FDF77DFC8021A02000224900C00519
:1031D000FDF776FC012309940024290098486B60D0
:1031E000AC60EC60FDF7B6FB0123A0200993964B81
:1031F0002900C0056B60AC60FDF7ACFB8823A02004
:103200005B000993103BFF3B2900C0056B60AC607D
:10321000EC60FDF79FFB8D4B290009930123894842
:103220006B60AC60EC60FDF795FB894B290085482D
:103230006B600997AC60FDF78DFB22002100052033
:10324000FDF740FA0520FDF76DFA0122336B2100EE
:1032500013433363336B0A20134005932200059B0D
:10326000FDF730FA0A20FDF75DFA7A487A4B82269C
:10327000036080239B008361E93BFF3B7600C361D1
:10328000113B4660C3628460C460046144610462AF
:1032900044628462FEF712FC704F714B38003B6051
:1032A00096239B017B600C23BC607B61FC603C61CE
:1032B000BC61FC613C627C62FFF74AFA012221009A
:1032C0001B20FDF7FFF91B20FDF72CFA6548664B24
:1032D0004660036080239B008361E93BFF3BC36141
:1032E000113BC3628460C46004614461046244624F
:1032F0008462FEF7E3FB5D4E5D4B30003360E123FB
:10330000DB0073600123B460F36034617461B46105
:10331000F4613462FDF702FD21003000FDF782FE0A
:1033200021003000FDF7A4FE00F082F9FFF744FA17
:10333000FFF768FEFFF7DCFAFFF764FBFFF704FB1B
:10334000FFF7E8FB4B4E462231003800FEF760FEE7
:1033500001230193BB6F202B04D14622310038009A
:10336000FEF756FE444B1B780293002B42D0337875
:10337000302B03D10022404B1A70EBE700233F486B
:1033800001221C0084460293501E305C242802D186
:10339000B15C472902D00299002909D06146C8547E
:1033A00001990133DBB202912C2801D1611CCCB20E
:1033B0000132462A01D0072CE6D9FFF71DFA002872
:1033C000D8D000212E4A535C6B5401311B29FAD10D
:1033D0002800FFF7CBFD01980521FFF7A7FC00218E
:1033E0004020FFF7A3FCFA204000FDF75BF9FFF750
:1033F000BBFBBFE7234C23780393002B05D0FFF7DB
:103400003FFD6B461B7A2370A4E71F4B1B78002BF4
:10341000A0D01E4C02212378002B09D01C4800F0BC
:10342000C3F86B461B7B23700023174A137091E788
:10343000184800F0B9F86B461B79F4E70010024019
:10344000000800500004005000002110215100002D
:103450000000111040080020003001405C070020EF
:10346000003801406C06002000380040C8060020EB
:1034700000540040CD0500207C050020830500207D
:103480000E0800207F0500207B050020CC050020D1
:103490006400002066000020F0B580208024802693
:1034A000202501210C4B24051A1DC000D667D567C5
:1034B000D467D067094A1170094A073112689769C1
:1034C0003943916110219769394391611E601D60F4
:1034D0001C601860F0BDC04600E100E07C050020E3
:1034E0005C070020F7B520238026264D8022EE675A
:1034F000EB6780231B05EB678023234CDB00EB6726
:1035000000AF12022300904227D16B466A467B60CF
:103510001E4B1B780733DB08DB00D31A9D46684639
:10352000FFF786FB1A4B1A78002A04D126607B68C5
:103530009D46BD46F7BD00221A70164B1978164BF2
:10354000187800F0F9F92023EE67236080231B052B
:1035500023608023DB002360E9E702280DD10121ED
:103560000E4A117080221A60603A1A608022120599
:103570001A608022D2001A60DBE70128F2D1084AE3
:103580001070EFE704E100E000E100E05B000020E4
:103590007D05002080050020CA0500207F05002051
:1035A0007B05002070470000F8B50F0080258021C2
:1035B0000C4C06006D0120000022C901FDF780FAC5
:1035C000290020000022FDF77BFAFA233A0031009F
:1035D0009B000548FEF7B2FA290001222000FDF702
:1035E0006FFAF8BD000400506C060020F8B50F001B
:1035F000802580210C4C06006D0120000122C901AC
:10360000FDF75EFA290020000022FDF759FAFA239F
:103610003A0031009B000548FEF790FA290001228C
:103620002000FDF74DFAF8BD000400506C060020A4
:103630008021A02030B5012285B04900C005FDF7EA
:103640003FFA80210825012249010F48FDF738FA89
:103650000E4C2A00210002A800F066FB611902242A
:1036600001A8220000F060FB290002A8FFF79CFFE0
:10367000210001A8FFF798FF80210548C900FFF746
:10368000B5FF05B030BDC04600040050B53D000890
:103690006800002010B58024E40001210348013CAB
:1036A000FFF7A4FF002CF8D110BDC046140600207F
:1036B000F0B505000624022689B003912A78002A75
:1036C00060D01300163B634311000193230041397E
:1036D0004B43100002930023C9B230380491C1B2A9
:1036E00005910499192907D8274902980918C95C36
:1036F00006A8C154210019E00599092902D82249D8
:103700000198F3E7252A06D11F498C461900D831C4
:103710006046415CECE73A2A17D11B498C461900F8
:10372000EA316046415C06A8C154310006A8185C25
:10373000039F38438446674606A81F540133062B6F
:10374000CFD1FFF753FF0135B8E72E2A04D10E4938
:103750008C461900EC31E4E7202A04D10A498C4652
:103760001900E431D4E7402A04D107498C461900F6
:10377000E431D6E721002A2AD8D103498C46190022
:10378000DE31C5E709B0F0BD68040020F7B522239B
:10379000032500266A46284901AC137056709670BE
:1037A0000A312A00200000F0BFFAFFF773FF29005A
:1037B0006846FFF7F9FE29002000FFF7F5FE31000B
:1037C0001E48FFF775FF01276B465F709F707F23D0
:1037D00029006846A3706670FFF7E6FE2900200006
:1037E000FFF7E2FE39001648FFF762FF6A46022340
:1037F00029005370937068467D33A3706670FFF79D
:10380000D3FE29002000FFF7CFFE31000D48FFF75F
:103810004FFF6B465D709D707F2329006846A37043
:103820006670FFF7C1FE29002000FFF7BDFE3100E2
:103830000548FFF73DFFF7BDB53D0008E03D000836
:10384000F63D00080C3E0008123E0008F0B51F00CF
:103850000025222387B001913649029205AC04AAC3
:10386000137055709570060003220A31200000F095
:103870005BFA3B78312B29D11F3B032104A8A370AD
:10388000FFF792FE03212000FFF78EFE2900300093
:10389000FFF70EFF21230321637004A81133A370E7
:1038A000FFF782FE03212000FFF77EFE290001982A
:1038B000FFF7FEFE61230321637020001833A3701D
:1038C000FFF772FE29000298FFF7F2FE3B780393A0
:1038D000322B2CD1032504AB00275D709D70122381
:1038E000290004A8A3706770FFF75EFE290020007E
:1038F000FFF75AFE39003000FFF7DAFE212363702C
:103900006B461B7B29002000A370FFF74DFE39009A
:103910000198FFF7CDFE412329006370200030336A
:10392000A370FFF741FE39000298FFF7C1FE07B010
:10393000F0BDC046B53D0008F0B506003A4F87B06F
:103940000D3704AC019104223900200005AD00F0D0
:10395000EBF939000422280000F0E6F96421300078
:10396000FCF7E6FBC7B20A213000002F3AD1FCF782
:1039700065FC3031A17030000A21FCF7D9FB0A2127
:10398000C0B2FCF75BFC20233031617023706421EE
:103990000198FCF7CDFBC6B20A210198002E32D166
:1039A000FCF74CFC3031A97001980A21FCF7C0FBF0
:1039B0000A21C0B2FCF742FC2023303169702B7021
:1039C0001A4E3378002B03D1FFF7E0FE012333704A
:1039D000312203AB1A702900154A2000FFF736FF89
:1039E00007B0F0BDFCF72AFC3031A17030000A218D
:1039F000FCF79EFB0A21C0B2FCF720FC30373031C7
:103A000061702770C3E7FCF719FC3031A970019889
:103A10000A21FCF78DFB0A21C0B2FCF70FFC3036FF
:103A2000303169702E70CBE7B53D000813060020D9
:103A30002C3E00080122054B596B0A435A63802231
:103A4000996B52050A439A637047C04600100240C2
:103A500010B5040086B01422002101A800F06DF911
:103A6000104B22689A421AD102210F4C0F48E26A89
:103A70000A43E262E36A03220B400093009BC023E7
:103A80000193AE3B029301A9113B0393049205936A
:103A9000FCF760FF8023A26B9B031343A36306B074
:103AA00010BDC04600540040001002400004005009
:103AB00010B5040088B01422002103A800F03DF9DD
:103AC00023681C4A93421AD180221B4B5201596B26
:103AD000A0200A4301215A63DA6AC0050A43DA6268
:103AE000DB6A0B400193019BE0230393DE3B0493CD
:103AF0005B18069303A9FCF72DFF08B010BD0F4A11
:103B00009342FAD180220C4BD201996B0C480A43A4
:103B10009A630222D96A1143D962DB6A03A913406E
:103B20000293029BA0231B02039303230492069398
:103B3000E1E7C0460030014000100240003800407C
:103B40000004005070B5050086B01422002101A8C1
:103B500000F0F3F81F4B2A689A4239D180221E4B9D
:103B6000D201596BA0200A4301215A63DA6A032665
:103B70000A43DA62DB6AC0050B400093009BC02356
:103B8000DB000193022301A90293DB18059304963D
:103B9000FCF7E0FE114C124B802223600023200032
:103BA0006660A360E36022616361A361E3612362F5
:103BB000FCF7DCFD002801D0FFF7F4FC00221B20FD
:103BC000EC661100A562FCF77DFD1B20FCF7AAFD49
:103BD00006B070BD003801400010024014070020FC
:103BE000300002407047FEE77047704710B5FCF7A1
:103BF0004BFD10BD10B50120FCF768FF0220FCF75B
:103C000065FF10BD10B50248FCF758FE10BDC04658
:103C10001407002010B50248FEF7A4FA10BDC046F4
:103C20005C070020802010B50002FCF74FFF10BD9C
:103C30008022104B520019680A431A60DA680E4954
:103C40000A40DA601A680D490A4001211A609A6830
:103C50008A439A601A680A490A401A60DA68094970
:103C60000A40DA6000221A618022074B12059A602E
:103C70007047C046001002400C40FF88F6FFF6FE79
:103C8000FFFFFBFFFFFF02FF00ED00E00D48854650
:103C9000002103E00C4B5B58435004310B480C4BA4
:103CA00042189A42F6D30B4A02E000231360043212
:103CB000094B9A42F9D3FFF7BBFF00F011F8FFF769
:103CC00045FAFEE700200020643E000800000020C6
:103CD0005C0500205C050020A0080020FEE7000035
:103CE00070B500260C4D0D4C641BA410A64209D1E2
:103CF000002600F03FF80A4D0A4C641BA410A642AF
:103D000005D170BDB300EB5898470136EEE7B3001C
:103D1000EB5898470136F2E75C3E00085C3E00082D
:103D20005C3E0008603E0008002310B59A4200D1B6
:103D300010BDCC5CC4540133F8E7030082189342F1
:103D400000D1704719700133F9E7020010B51378FC
:103D5000002B05D1CC5CD4540133002CFAD110BD1A
:103D60000132F4E7031C0A7801311A700133002A8A
:103D7000F9D17047F8B5C046F8BC08BC9E467047FC
:0C3D8000F8B5C046F8BC08BC9E46704771
:103D8C00400309400100021000041000031000025F
:103D9C001001055200014403015202015202004479
:103DAC000300410309FDFD1201A83FD3002010AF11
:103DBC00ACC8A121007F3030300001040208001093
:103DCC001010041010100210101008244750474710
:103DDC0041002C00202020402A402020202025209B
:103DEC0020202020202020202000202020202020E7
:103DFC0020202020202020202020202020202000D7
:103E0C00544F544F2000202020402A4020202020B6
:103E1C002520202020202020404D20202020200064
:103E2C004649580000000000000000000102030495
:103E3C000607080900000000010203040304060839
:083E4C000C10182030000000EA
:083E540008C6FF7F0100000019
:043E5C00E900000871
:043E6000C100000895
:103E640024504D544B3232302C31303030302A32E1
:103E7400460D0A0024504D544B3235312C3936301E
:103E8400302A31370D0A0024504D544B3331342C31
:103E9400302C302C302C312C302C302C302C302C3D
:103EA400302C302C302C302C302C302C302C302C2E
:103EB400302C302C302A32390D0A0064FF00AB005C
:103EC400AA00FFFF81FF810F000000C0FEFEFE0E6E
:103ED4000E7EFCF8C000000000000000000000009E
:103EE4000000C0F8FC7E0E0EFEFEFEC000000000C6
:103EF400000000000000000000FC3FFF0000000084
:103F040000000000000000000000000000000000AD
:103F14000000FEFEFEFEFE0E0E0E0E0E0E0E0E0E29
:103F24000E1E1E3CFCF8F0E0000000000000000043
:103F340000F0F8FCFC3E1E1E0E0E0E0E0E0E0E0EB3
:103F44000E0E0E0E0E0E0E00000000FFFFFF0F00FF
:103F54000000030F7FFEF0C000000000000000C05E
:103F6400F0FE7F0F030000000FFFFFFF00000000C2
:103F74000000000000000080FE030007FC000000B9
:103F8400000000000000000000000000000000002D
:103F94000000FFFFFFFFFF808080808080808080A2
:103FA4008080C0E0FFFF7F3F0000000000000000B1
:103FB400000F3F7FFFF8F0F0E0E0E0C0C0C0C08039
:103FC4008080000000000000000000FFFFFF0000F0
:103FD4000000000000073FFFFFF0800080F0FFFFBB
:103FE4003F0700000000000000FFFFFF000000008A
:103FF400000000000000703F000000003FC000000F
:1040040000000000000000000000000000000000AC
:104014000000FFFFFFFFFF07070707070707070762
:10402400070F7FFDF0F0C00000000000000000005A
:104034000000000000000101010101030303030764
:10404400070F1FFFFEFCF0000000007F7F7F0000D1
:10405400000000000000000107070706070707012A
:104064000000000000000000007F7F7F0080F8E077
:104074000000000000F00F000000000000FF00003E
:10408400000000000000000000000080F03CF0C0D0
:104094000000FFFFFFFFFF00000000000000000021
:1040A400000000031F7F7F7E7800000000000000F6
:1040B40000007070707070707070707070707078D4
:1040C400787C3E3F3F1F03000C0C0C0C0C0C0C0CBA
:1040D4000C0C0C0C0C0C0C0C0C0C0C0C0C0C0C0C1C
:1040E4000C0C0C0C0C0C0C0C0C0C0C0C0C07000326
:1040F4007C800000FC070000000000000003FF00BB
:10410400000000C0F0E0800080F01C070000000FF9
:104114001FF8E0000000C0F80C0C0C0C0C0C0C0C8C
:104124000C0C0C0C0C0C0C0C0C0C0C0C0C0C0C0CCB
:104134000C0C0C0C0C0C0C0C0C0C0C0C0C0C0C0CBB
:104144000C0C0C0C0C0C0C0C00000000000000000B
:10415400000000000000000000000000000000005B
:10416400000000000000000000000000000000004B
:104174000007F87F010000000000000000001FE0BD
:10418400000000FF00010707070100000000000015
:104194000000031F3C1F030000000000000000009B
:1041A400000000000000000000000000000000000B
:1041B40000000000000000000000000000000000FB
:1041C40000000000000000000000000000000000EB
:1041D40000000000000000000000000000000000DB
:1041E40000000000000000000000000000000000CB
:1041F400000001000000000000000000000000FFBB
:104204000000FC3F0000000000000000000000006F
:10421400000000000000000000000000000000009A
:10422400000000000000000000000000000000008A
:10423400000000000000000000000000000000007A
:10424400000000000000000000000000000000006A
:10425400000000000000000000000000000000005A
:10426400000000000000000000000000000000004A
:104274000000000000000000000000000000000139
:10428400FFFC0F0000000000000000000000000020
:10429400000000000000000000000000000000001A
:1042A400000000000000000000000000000000000A
:1042B40000000000000000000000000000000000FA
:1042C40000000000000000007E0909097E007F490B
:1042D400494936003E41414122007F4141221C00B0
:1042E4007F49494941007F09090901003E4141498B
:1042F40038007F0808087F0041417F414100314177
:104304003F0101007F08142241007F4040404000EB
:104314007F0214027F007F0408107F003E41414168
:104324003E007F09090906003E4151215E007F09D4
:104334001929460026494949320001017F0101003B
:104344003F4040403F001F2040201F003F4030407E
:104354003F006314081463000304780403006151EC
:10436400494543003E5149453E0044427F40400098
:104374004261514946002249494936001814127FC6
:1043840010002F49494931003E494949320003018F
:1043940071090700364949493600264949493E0012
:1043A4002210080422000619621906000000000009
:0C43B4000000220040000000000020007B
:0400000508003C8D26
:00000001FF
