:020000040800F2
:1000000000200020253200087D3100087F310008E3
:1000100000000000000000000000000000000000E0
:100020000000000000000000000000008131000816
:100030000000000000000000833100088531000846
:1000400075320008753200087532000875320008F4
:10005000753200088D31000875320008BD31000886
:1000600075320008753200087532000875320008D4
:100070007532000875320008000000009D3100084C
:1000800000000000753200080000000000000000C1
:100090007532000800000000753200087532000853
:1000A000753200087532000875320008AD3100085D
:1000B0007532000875320008753200087532000884
:1000C00010B5064C2378002B07D1054B002B02D02E
:1000D000044800E000BF0123237010BD600500202C
:1000E000000000000C330008044B10B5002B03D0B7
:1000F0000349044800E000BF10BDC04600000000F6
:10010000640500200C33000802780B78002A03D025
:10011000013001319A42F7D0D01A704702B47146CB
:1001200049084900095C49008E4402BC7047C0463A
:10013000002243088B4274D303098B425FD3030A26
:100140008B4244D3030B8B4228D3030C8B420DD339
:10015000FF22090212BA030C8B4202D312120902C7
:1001600065D0030B8B4219D300E0090AC30B8B4205
:1001700001D3CB03C01A5241830B8B4201D38B03B3
:10018000C01A5241430B8B4201D34B03C01A524158
:10019000030B8B4201D30B03C01A5241C30A8B429B
:1001A00001D3CB02C01A5241830A8B4201D38B0286
:1001B000C01A5241430A8B4201D34B02C01A52412A
:1001C000030A8B4201D30B02C01A5241CDD2C3099C
:1001D0008B4201D3CB01C01A524183098B4201D318
:1001E0008B01C01A524143098B4201D34B01C01A03
:1001F000524103098B4201D30B01C01A5241C3087B
:100200008B4201D3CB00C01A524183088B4201D3E9
:100210008B00C01A524143088B4201D34B00C01AD5
:100220005241411A00D20146524110467047FFE741
:1002300001B5002000F006F802BDC0460029F7D045
:1002400076E770477047C046002B11D1002A0FD1C6
:10025000002900D1002802D00021C943081C07B49E
:10026000024802A14018029003BDC046D9FFFFFF1B
:1002700003B4684601B5029800F006F8019B9E465B
:1002800002B00CBC7047C046F0B557464E464546D6
:10029000DE46E0B5040083B00D00924699468B42DD
:1002A0002FD82CD04946504600F0AEF82900060061
:1002B000200000F0A9F8331A9846203B9B4600D551
:1002C00074E053465A4693401F00534642469340BB
:1002D0001E00AF4229D826D05B46A41BBD41002B8F
:1002E00000DA79E0002200230092019301235A46AC
:1002F00093400193012342469340009319E08242C8
:10030000D0D900220023009201930C9B002B01D036
:100310001C605D600098019903B03CBC9046994612
:10032000A246AB46F0BDA342D6D9002200230092DC
:1003300001934346002BE8D0FB0772081A43464658
:100340007B080EE0AB4201D1A2420CD8A41A9D4119
:10035000012024196D410021013E24184D41002E39
:1003600006D0AB42EED9013E24196D41002EF8D1E2
:100370005B460098019900196941002B22DB2B0094
:100380005A46D3402A004446E2401C005B46150012
:10039000002B2CDB26009E40330026004746BE4043
:1003A0003200801A994100900191AEE74246202325
:1003B0009B1A5246DA40414613004A468A401700CB
:1003C0001F4382E7424620239B1A2A0046469A4052
:1003D0002300F3401343D5E74246202300219B1A14
:1003E0000022009101920122DA40019282E7424606
:1003F000202326009B1ADE402F00B4469740664615
:100400003B003343C9E7C04610B5002903D100F0D3
:1004100007F8203002E0081C00F002F810BDC046CA
:100420001C2101231B04984201D3000C10391B0A24
:10043000984201D3000A08391B09984201D30009E8
:10044000043902A2105C40187047C046040302023F
:10045000010101010000000000000000FA210A4B28
:1004600070B5890005001868FFF762FE00F07AF8A1
:1004700004000120002C05D102382200290000F0E0
:1004800037F8200070BDC0465C0500204023084AB4
:1004900010B5116800200B431360FFF7DFFF041E47
:1004A00003D102F097FD200010BD0124FBE7C046F8
:1004B00000200240024A1368013313607047C046AF
:1004C00080060020014B18687047C0468006002057
:1004D00070B50400FFF7F6FF631C5A1E9341050038
:1004E000E418FFF7EFFF401B8442FAD870BD00000C
:1004F00070B58901002814DA0F23C0B20340083B0D
:10050000114A9B089B009B18032210409040FC322C
:100510001500114085408140DC69AC432143D9611D
:1005200070BD032583082840A840FC352E00074AEB
:100530009B009B18C02286402940814092009C5815
:10054000B44321439950EBE700ED00E000E100E007
:100550001F2318401E3B8340014A13607047C0466A
:1005600000E100E0094A431E012093420DD8C0215A
:10057000074A08485360036A09061B021B0A0B431B
:10058000036200200723906013607047FFFFFF00A5
:1005900010E000E000ED00E070B5841DE37F022B69
:1005A00004D00423C363033B180070BD0E2103680D
:1005B000456C1A688A431A600122196891431960D0
:1005C0001C232B4015009D40016C431D4D60E277BC
:1005D0000024826BDC771300A242E5D09047230011
:1005E000E2E70000F0B5534A0B688218541EA2419E
:1005F00085B00193002305320392019ADA4001D1BC
:1006000005B0F0BD01259D40019A2A40009200D11D
:100610008DE04A6894461022644694432200013CCF
:10062000022A1FD107240F271C40A400A740DA0884
:1006300092008218166ABE430F69A7403E431662B5
:1006400003245E00B4408268A243CC68B4402243D5
:1006500082606246D206D20F9A404468AC4322437D
:10066000426001E0012CEBD9032634005D00AC4070
:100670006246E4433240AA40076827403A4302609A
:10068000C26814408A68AA4014436246C460D2001B
:100690004DD50125284C0F27626B2A431D0035409C
:1006A000AD00AF406263254A9C08A400A418A2686C
:1006B000BA43A0270292FF050022B8420CD0204F77
:1006C0000132B84208D01F4F0132B84204D01E4F49
:1006D0003200B84200D0039AAA406746029D2A43DE
:1006E000A2601A4A009C1668009DE4433543FF034C
:1006F00001D435002540674615605668009D354396
:10070000BF0301D435002540674655609668009DBB
:100710003543FF0201D43500254067469560D56812
:10072000009E2E43BF0201D425402E00D660013327
:1007300063E7C04600E4FFAF001002400000014044
:100740000004005000080050000C0050000401405C
:10075000002A01D0816170478162FCE7044B10B52B
:100760005A69104202D0586102F008FA10BDC04622
:100770000004014070B504000120002C3FD025008A
:1007800041352B78DBB2002B05D1220040321370AB
:10079000200002F02DFC242301212B702368E06847
:1007A0001A68A6688A431A6061681A4A0A401A6180
:1007B0009968194A11409960012821D180210902C4
:1007C000314399605868154901435960D968002040
:1007D0000A40DA60616922690A43A16909020A4391
:1007E000DA60216AE2690A431A60012219680A4341
:1007F0001A60202360642B7020634234207070BD27
:1008000084210902314399600228DBD1802109014A
:100810005960D7E7FFFFFFF0FF7FFFFF0080000276
:10082000F0B50400413422780300D2B20220202A1D
:1008300018D11D0040352E78012E13D01B682230B0
:1008400020701E68233886431E601E68064F3E4097
:100850001E601E6831431960196808431860002043
:1008600022702870F0BDC046FFEFFFFFF0B5050015
:1008700041352A780300D2B20220202A17D11C0069
:1008800040342678012E12D01B68223028701E6852
:10089000233886431E601E68054F09023E403143DF
:1008A000196019680843186000202A702070F0BD94
:1008B000FFF0FFFF0C22184B10B5D9680A40082A38
:1008C00026D00C2A06D0042A1AD11B68DB0621D4B4
:1008D000124810BD8A021248120F825C0902D868C1
:1008E000890F0131C00304D50E485043FFF720FCA7
:1008F000EFE71B68DB0601D50B48F6E70748F4E78E
:1009000080205B6800021B045B0F01339840E0E726
:100910000448DEE70448DCE7001002400024F4004D
:10092000AD33000800127A0000093D00F0B5050063
:1009300087B0002802D1012007B0F0BD0C23BE4CC7
:10094000E668E2681E4080235B021A40019202685A
:10095000D20741D42B689B0700D587E02B68DB06C4
:1009600028D5002E00D0D9E023689B0502D5EB697D
:10097000002BE0D06268B1496B6A0A401A4362609A
:1009800061682A6A0902090A12060A436260802223
:100990005B0B013312029A401300E16800200A0643
:1009A000A749120F8A5CD340A64A1360FFF756FD91
:1009B0000028C1D12B681B0700D5E6E02B685B0738
:1009C00000D508E12B689B0600D58DE1AB6A002BB2
:1009D00000D0BCE10020AFE7082E04D00C2E09D1D6
:1009E000019A002A06D023689B03B3D56B68002BBD
:1009F000B0D1A0E76A689A4211D1226813432360FC
:100A0000FFF760FD07008022236892021342A1D104
:100A1000FFF758FDC01B6428F5D903208CE7A021FF
:100A2000C9028A4205D180222168D2020A4322608B
:100A3000E3E7216884480140216021680B40059369
:100A4000059B824923680B402360002AD8D1FFF719
:100A500039FD0700802223689202134200D179E712
:100A6000FFF730FDC01B6428F4D9D6E7EA68042EEE
:100A700004D00C2E25D1019B002B22D123685B07CB
:100A800002D5002A00D156E761682B6970481B0225
:100A900001400B430921636023688B4313432360A8
:100AA000FFF708FFE368664A1B061B0FD35CD840BC
:100AB000644B18600020FFF7D1FC002800D14DE7FF
:100AC0003AE72368002A18D009218B431343236097
:100AD000FFF7F8FC070004222368134207D062687E
:100AE0002B695B491B020A401343636036E7FFF73B
:100AF000E9FCC01B0228EED98FE701229343236053
:100B0000FFF7E0FC070004222368134200D125E729
:100B1000FFF7D8FCC01B0228F5D97EE7EB69002B54
:100B200020D0802322685B0013432360FFF7CAFCB8
:100B3000070080222368920013420DD063683F4A69
:100B400013406A6A1343636062682B6A12021B06D1
:100B5000120A134363602DE7FFF7B4FCC01B0228A1
:100B6000E7D95AE723683B4A13402360FFF7AAFC02
:100B70000700802223689200134200D11AE7FFF792
:100B8000A1FCC01B0228F4D947E76A690123002AA7
:100B900010D0226D13432365FFF794FC0700022257
:100BA000236D134200D009E7FFF78CFCC01B02281D
:100BB000F5D932E7226D9A432265FFF783FC0700DF
:100BC0000222236D134200D1F8E6FFF77BFCC01B25
:100BD0000228F5D921E780230021A26B5B05019152
:100BE0001A4204D1A26B1343A36301230193802211
:100BF000194F52003B68134208D08022AB68520064
:100C000093422BD1226D134323654CE080223B6835
:100C1000520013433B60FFF755FC80235B000290BA
:100C200003933B68039A1342E7D1FFF74BFC029B07
:100C3000C01A6428F5D9F0E600100240FF1FFFFF3C
:100C4000953300085C050020FFFFFEFFFFFFFBFF60
:100C5000FFE0FFFFFFFEFFFF00700040002B16D1FA
:100C6000236D6C4A13402365236D6B4A1340236543
:100C7000FFF728FC07008022236D920013422AD040
:100C8000FFF720FC654BC01B9842F4D9C5E6A021B4
:100C9000C9008B420BD18023216DDB000B43236500
:100CA000236D1A432265FFF70DFC07000EE0236D4C
:100CB000584A13402365236D574A1340A4E7FFF7B2
:100CC00001FC564BC01B984200D9A6E68022236D3A
:100CD00092001342F3D0019B012B00D072E6A36B6C
:100CE0004F4A1340A3636DE6A96901234D4A0029C9
:100CF00018D0A1681943A160616B0B436363802323
:100D0000116A9B010B431362FFF7DCFB0700022211
:100D1000A368134200D059E6FFF7D4FBC01B02289A
:100D2000F5D97AE6A1689943A160136A3E490B4060
:100D30001362FFF7C7FB07000222A368134200D12A
:100D400044E6FFF7BFFBC01B0228F5D965E60C2E71
:100D500043D0364A022B2ED12368802613402360CD
:100D6000FFF7B0FB0700B604236833421DD1296B9F
:100D7000EB6AE2680B432E490A4013436A6B8025F5
:100D80001343E360802322685B0413432360FFF76F
:100D900099FB0600AD0423682B4200D01AE6FFF74A
:100DA00091FB801B0228F6D937E6FFF78BFBC01BAF
:100DB0000228D9D931E62368802513402360FFF744
:100DC00081FB0600AD0423682B4200D102E6FFF749
:100DD00079FB801B0228F6D91FE61800012B00D1F1
:100DE000AAE58022E368E96A52021A4001208A4299
:100DF00000D0A1E5F022296B92031A408A4200D06C
:100E00009AE5C02000040340686B181A431E9841FD
:100E1000C0B291E5FFFEFFFFFFFBFFFF881300005C
:100E2000FFFFFFEF00000140FFDFFFFFFFFFFFFEBE
:100E3000FFFF02FFF7B5061E019101D10120FEBDA3
:100E40000122514C0199236813408B4227D3326809
:100E500093072FD4D30735D40123226801991A4070
:100E6000914200D281E03268484C530700D584E0BB
:100E7000130706D5E26833694549DB000A4013438E
:100E8000E360FFF717FDE368424A1B061B0FD35CC4
:100E9000D840414B18600020FFF7E0FACFE7236805
:100EA000019993430B43236023681340019A9A42AC
:100EB000C4D1CCE7F0203549CB688343B068034305
:100EC000CB60C7E7314D72682B68022A19D19B03AA
:100ED000B4D50321EB688B431343EB60FFF7F2FAC1
:100EE00073680700022B19D10C22EB681340082B02
:100EF000B2D0FFF7E7FA294BC01B9842F4D9032080
:100F00009DE7032A02D19B01E3D497E7012A02D18E
:100F10005B07DED492E79B05DBD48FE7032B0BD175
:100F20000C22EB681340934296D0FFF7CBFA1B4B91
:100F3000C01B9842F4D9E2E7012B10D00C22EB68D9
:100F4000134289D0FFF7BEFA144BC01B9842F5D963
:100F5000D5E7FFF7B7FA114BC01B9842CFD80C2248
:100F6000EB681340042BF4D176E722689A432260A1
:100F700022681A4200D061E775E7E36808490B4030
:100F8000F1680B43E36073E7002002400010024069
:100F9000FFC7FFFF953300085C05002088130000A1
:100FA000FFF8FFFF044B054ADB685B055B0FD35C72
:100FB000034A1068D840704700100240A53300086B
:100FC0005C050020044B054ADB689B045B0FD35C87
:100FD000034A1068D840704700100240A53300084B
:100FE0005C0500208223F7B502681B0105001A4248
:100FF00047D0802300215F4C5B05A26B00911A4211
:1010000004D1A26B1343A3630123009380275A4E9C
:101010007F0033683B426DD06968C02208002368B6
:10102000920313401040834203D1A86802409342C8
:1010300009D0C0230A009B021A409A4203D12368B8
:1010400001209B0366D4C022236D9202134062D11B
:101050006968C0230A009B021A409A4207D123689C
:1010600046480340C020800301400B432360236DAA
:101070001A43009B2265012B03D1A36B404A134006
:10108000A3632B68DA0706D503203A49CA6C82436A
:10109000E8680243CA649A0706D50C203549CA6C31
:1010A000824328690243CA645A0706D53149354844
:1010B000CA6C024068690243CA641A0706D52D4902
:1010C0003148CA6C0240A8690243CA645A0606D570
:1010D00028492E48CA6C0240286A0243CA6400208C
:1010E0001B0617D5234A2A49D36C0B40E9690B43E9
:1010F000D3640FE033683B433360FFF7E3F90190BB
:1011000033683B4288D1FFF7DDF9019BC01A6428A0
:10111000F6D90320FEBD11408B4202D02968890612
:1011200008D4A9680A40934200D191E72B681B05B7
:1011300000D48DE78022216D206D120302432265C9
:10114000226D144B14480B40024022652365CB05E9
:1011500000D47DE7FFF7B6F980270600BF00236DB6
:101160003B4200D074E7FFF7ADF90C4B801B98426F
:10117000F5D9CEE70010024000700040FFFFCFFF1E
:10118000FFFFFFEFFFF3FFFFFFCFFFFFFFFFFFFBBF
:10119000FFFFF3FFFFFFFCFFFFFFF7FF88130000D7
:1011A000F8B504000D0016001F00226893682B405C
:1011B0009D4201D0002031E0731CF7D0FFF782F987
:1011C000C01B8642F1D8E02123685A688A435A60DE
:1011D00082226168520091420CD18021A2680902EA
:1011E0008A4203D08021C9008A4203D140211A6873
:1011F0008A431A608021A26A89018A4206D119684D
:1012000007480140196019680A431A602300012247
:1012100051331A700023032050342370F8BDC046A8
:10122000FFDFFFFFF8B51300822204004068520080
:1012300090421ED180208025A2680002ED008242EB
:1012400001D0AA4206D1402726683068B8433060F2
:10125000AA420ED00A0080212000FFF7A1FF00283B
:1012600001D10020F8BD2023626D03201343636584
:10127000F8E70A000121EFE71300822210B504000D
:1012800040685200904208D10A0080212000FFF7F8
:1012900087FF002809D1002010BD220051321278AA
:1012A000052AF8D10A000121F0E72023626D03200E
:1012B00013436365F0E7000070B504000120002CC3
:1012C00037D000232500A36251352B78DBB2002BE9
:1012D00005D1220050321370200001F0B9FE022324
:1012E000402221682B700B68A06893430B606368F1
:1012F000A2690343E0680343206903436069034331
:10130000E0690343206A0343A06A0343802080000E
:10131000104003430B600423120C1A40636A002040
:101320001A434A60CB69034A1340CB6101236065CD
:101330002B7070BDFFF7FFFFF0B587B0019303007E
:10134000503303931B7804000E0017000225012B75
:1013500079D00123039A1370FFF7B4F822000290AA
:1013600051321378DBB2012B67D11D00002E64D0FF
:10137000002F62D00233137000236365A363E786F6
:10138000A387E387636423648023A2682663A78618
:101390001B029A4205D180232268DB0111680B43AE
:1013A0001360402223681968114202D119680A4368
:1013B0001A608021E06809016268884246D1002AEB
:1013C00001D0012F07D132880236DA60E38E26631E
:1013D000013B9BB2E3860225E38E002B15D1029AD6
:1013E00001992000FFF748FF002859D1A368002B7E
:1013F00006D105932368DA6805929B680593059BDF
:10140000656D6B1E9D41EDB217E0226893682B421B
:1014100009D0236B19880233D1602363E38E013B2B
:101420009BB2E386D8E7FFF74DF8029BC01A019BF9
:101430009842D1D30133CFD00325012351342370F7
:101440000023039A1370280007B0F0BD002A01D0D2
:10145000012F08D132781A73236B01332363E38E93
:10146000013B9BB2E3860225E38E002BB7D02368B5
:101470009A682A420AD0226B12781A73236B0133BE
:101480002363E38E013B9BB2E386EDE7FFF71AF897
:10149000029BC01A019B8342E6D80133E4D0CBE71C
:1014A00020236365A2E7F0B51F00030085B0019219
:1014B00050331A7804000E000225012A00D19BE067
:1014C00001221A70FEF7FEFF2300009051331B78B3
:1014D0006168DBB2012B0BD082225200914200D016
:1014E00083E0A268002A00D07FE0042B00D07CE0DB
:1014F0000125002E00D178E0019B002B75D0002F34
:1015000073D0230051331A78042A01D005221A70AF
:101510000023019A6365A263402223646364236805
:10152000E787E7861868A7872663A786104202D157
:10153000186802431A608022E068120190425ED16E
:10154000002901D0012F07D132880236DA60E38EFC
:101550002663013B9BB2E386012502272E00E38E22
:10156000002B15D1E38F002B12D1009A0A9920008D
:10157000FFF782FE051E00D087E0A368002B34D160
:1015800023680390DA6803929B680393039B2CE023
:10159000226893683B420ED0E38E002B0BD0012DC6
:1015A00009D10025236B19880233D1602363E38EB0
:1015B000013B9BB2E386936833420CD0E38F002B50
:1015C00009D03500D268A36B1A800233A363E38F7E
:1015D000013B9BB2E387FEF775FF009BC01A0A9B95
:1015E0008342BCD80133BAD00325230001225133F2
:1015F0001A70002350342370280005B0F0BD002974
:1016000001D0012F08D132781A73236B0133236381
:10161000E38E013B9BB2E386012502272E00E38E79
:10162000002B02D1E38F002B9FD023689A683A42A7
:101630000FD0E28E002A0CD0012D0AD10025226B9A
:1016400012781A73236B01332363E38E013B9BB241
:10165000E38623689A6832420DD0E28F002A0AD0CE
:101660003500DB68A26B1370A36B0133A363E38FB8
:10167000013B9BB2E387FEF725FF009BC01A0A9B44
:101680008342CCD80133CAD0AEE72023012563655D
:10169000ABE70000F0B51E0082231700426887B058
:1016A000040002915B009A420FD18368002B0CD199
:1016B0000300042251331A7000963B000A00FFF722
:1016C000F2FE0500280007B0F0BD2300503304935C
:1016D0001B780225012BF5D00123049A1370FEF725
:1016E000F1FE23005133039005931B78DBB2012BED
:1016F0004FD1029A1D00002A4BD0002F49D0059AE5
:1017000003331370029A0023A2638022A1686365E9
:101710002363E787A386E38623646364A7871202B3
:101720002368914203D11A682C490A401A6040226A
:101730001968114202D119680A431A60E368012549
:10174000002B3AD1E38F002B0BD1039A31002000FC
:10175000FFF768FD00283DD1656D6B1E9D41EDB220
:1017600017E023689A682A420AD01B7BA26B137089
:10177000A36B0133A363E38F013B9BB2E387E1E7F4
:10178000FEF7A0FE039BC01A8642DBD8731CD9D09B
:1017900003250123059A13700023049A137091E71F
:1017A000226893682B420CD0D268A36B1A80023354
:1017B000A363E38F013B9BB2E387E38F002BEFD161
:1017C000C3E7FEF77FFE039BC01A8642F5D8731C61
:1017D000F3D0DDE720236365BEE7C046FFBFFFFF10
:1017E00051300078C0B27047802210B50368D2052E
:1017F000904205D0104CA04202D0104CA0420FD114
:101800007024A3434C682343904205D00A4A904277
:1018100002D00A4A904203D1094A1340CA681343CE
:10182000802293430A69134303608B68C3620B6889
:1018300083620123436110BD000801400014014090
:10184000FFFCFFFF70B504000120002C14D0250020
:1018500039352B78DBB2002B05D1220038321370DA
:10186000200001F03FFC022320682B70211DFFF7B0
:10187000BBFF012300202B7070BD0000F0B50400F9
:1018800002223834257803001000012D17D01D00E6
:1018900001271B68393527702A709A68454802402D
:1018A0009A600A68402A00D16DE014D8102A0BD043
:1018B00006D8002A08D0012300202B702070F0BD2C
:1018C000202A01D0302AF6D17021986888436939DE
:1018D0000A4302433DE0602A3DD017D8502AEAD19E
:1018E0004868CA68196A1E6A1201BE43F0271E6260
:1018F0009E69BE4332430A26B14301439A6119628D
:1019000070219A688A431100572221E0702A12D070
:10191000802080018242CED19A6827484E681040CC
:101920008A68C968324309020A4302439A608022E6
:101930009968D2010CE09A681F484E6810408A6886
:10194000C968324309020A4302439A6077229968C0
:101950000A439A60AFE71026186A4A68B043C9681C
:1019600018629E69154F09033E403143A026186A4C
:1019700099617021B043120102431A629A688A4346
:1019800011006722E4E74868CA68196A1E6A1201F2
:10199000BE43F0271E629E69BE4332430A26B1430E
:1019A00001439A61196270219A688A4311004722A3
:1019B000CEE7C0468800FFFFFF00FFFFFF0FFFFFDD
:1019C000704770477047704770470222036810B530
:1019D0001969040011420DD0D96811420AD0053AA4
:1019E0001A619B69043202769B075ED0FFF7EAFF1B
:1019F00000232376042223681969114210D0D96884
:101A000011420DD0093A1A61073222769A69C02331
:101A10009B0020001A424ED0FFF7D4FF002323760C
:101A200008222368196911420ED0D96811420BD0DF
:101A3000113A1A61DB690D32227620009B0740D0F3
:101A4000FFF7C0FF00232376102223681969114293
:101A500010D0D96811420DD0213A1A61193222767C
:101A6000DA69C0239B0020001A4230D0FFF7AAFF9A
:101A700000232376012223681969114207D0D9680F
:101A8000114204D0033A1A612000FFF799FF402267
:101A900023681969114207D0D968114204D0813AEC
:101AA0001A612000FFF790FF10BDFFF78AFF2000AA
:101AB000FFF789FF9CE7FFF784FF2000FFF783FF14
:101AC000ACE7FFF77EFF2000FFF77DFFBAE7FFF7E7
:101AD00078FF2000FFF777FFCAE770B504003834BD
:101AE000227803000220012A13D01D007026393508
:101AF0002870186842688368B2430E6849683243A8
:101B00008026B3430B4342608360012300202B7087
:101B1000207070BD036807491A680A401A609A6805
:101B20002331FF318A439A602023836700230366B1
:101B30007047C046DFFEFFFF70B5846F03000220D0
:101B4000202C41D1013800293ED0002A3CD08025EC
:101B50009C686D01AC4204D11D69002D01D1014288
:101B600032D11D0070352E780220012E2CD0013884
:101B700028705965190058310A804A808020002158
:101B80001A00196640015C32844220D1196900298B
:101B90001BD11849118000220121DA6722329A678D
:101BA0001A68906801439160802149018C421ED1DE
:101BB000196900291BD1104919669023002011686A
:101BC0005B000B432870136070BDFF21E2E7002C1F
:101BD00004D119690029F8D07F21DBE78020400576
:101BE0008442D7D119690029F6D03F21D2E70349B1
:101BF000E2E7C046FF010000651C0008051C000864
:101C000070470000826F10B50368222A23D10200BA
:101C10005C325B6A12881340426D13700200436DA0
:101C20005A32013343651388013B9BB213801388FA
:101C30009BB2002B0ED10268094C11682140116043
:101C400091682334FF34A1439160202203668267A8
:101C500000F07EFF10BD082299690A439A61F9E7F6
:101C6000DFFEFFFF826F10B50368222A21D1040036
:101C70005C34596A2488426D21401180010002328F
:101C800042655A310A88013A92B20A800A8892B2B1
:101C9000002A0DD11968094C214019609968233434
:101CA000FF34A143996020230266836700F050FF50
:101CB00010BD082299690A439A61F9E7DFFEFFFF28
:101CC00070470000F8B503680400DA6918689E6878
:101CD00011070AD120210A4200D16AE0084268D0E7
:101CE000236E2000002B5AD15AE0012135000D400F
:101CF00003D190277F0038425BD00A4205D0C60549
:101D000003D51962E66F3143E16702210A4206D02A
:101D1000002D04D01962E66F49183143E1670421B0
:101D20000A4206D0002D04D01962E66F0239314311
:101D3000E167110708D5810601D4002D04D00821E0
:101D40001962E36F1943E167E36F002B28D020236A
:101D50001A4206D0184204D0236E002B01D0200076
:101D600098472368E56F9B6820005B0602D4082330
:101D70001D401AD0FFF7CEFE402123689A680A4220
:101D80000FD09A68E06E8A439A60002809D01A4BF7
:101D90008363FEF701FC002802D0E06E836B984756
:101DA000F8BD2000FFF78CFFFAE7FFF789FFE56732
:101DB000F6E7802149030A4206D0750204D519626C
:101DC000200000F0A7FAEBE780210A4203D0084286
:101DD00001D0636E85E740210A42E1D00842DFD09E
:101DE0001A6820008A431A60202363670023636611
:101DF000FFF706FFD4E7C046FD1D0008806A0023F8
:101E0000020010B55A321380083A1380FFF758FFCA
:101E100010BD0000F8B504002569A26803682A43D4
:101E20006569C1692A431868794D0A43284002430D
:101E30001A605A687748784D0240E06802435A6059
:101E4000A069AB4201D0226A10439A68734E3240B7
:101E500002439A60724A934213D10322714BDB6CA6
:101E60001340714AD05C80231B02994200D092E05B
:101E700008281ED8FEF752F95860631D841D1D1DE9
:101E800087006A4A934205D10C22664BDB6C1340F3
:101E9000674AE7E7AB4200D0B3E0C0218020614A47
:101EA0000901D36CC0000B40834238D003D8002B0B
:101EB0000AD001250DE08020000183420ED08B4224
:101EC000F7D1802000020DE0FFF76CF80025A84252
:101ED00008D10023280023666366F8BD1368DB067B
:101EE00020D55448032263685A438242E1D81A033A
:101EF0008242DED30027020E01025E0889197A4170
:101F0000080011001A003B00FEF79EF94A4BC21868
:101F10004A4B9A42CDD823683D00D860D9E7FEF7F6
:101F2000C9FCD3E74648DDE7FFF73CF863684000AB
:101F30005B08C01861680BE0FFF744F8F6E710256E
:101F4000384B61681A684808154006D03D4BC018E8
:101F5000FEF7EEF8002583B204E03B4BC018FEF715
:101F6000E7F883B21900394810398142A1D80F210E
:101F700018001B0788435B0F21680343CB60A8E769
:101F8000FEF798FCD2E76368580880235B02D0E72D
:101F900001250023E6E7082837D8FEF7BFF8050C2F
:101FA0000F362A3636362D00FEF7FCFF63685B08D5
:101FB000C01861680BE0FFF705F8F7E71025194B2B
:101FC00061681A68480815400DD01A4BC018FEF712
:101FD000AFF8002583B219001C481039814200D99E
:101FE00067E72168CAE7164BC018FEF7A1F883B26D
:101FF000F1E7FEF75FFCD9E76368580880231B020E
:10200000D6E780231B029942C2D001250023E2E7D4
:10201000F369FFEFFFCFFFFF00480040FFF4FFFF31
:1020200000380140001002403133000800440040F5
:102030003533000800093D0000FDFFFFFFFC0F00E5
:102040000024F40000127A000048E801EFFF0000CD
:10205000436A30B5DA0706D50168284C4A68224041
:10206000846A22434A609A0706D50168244C4A686C
:102070002240C46A22434A605A0706D50168214CAF
:102080004A682240046B22434A601A0706D5016859
:102090001D4C4A682240446B22434A60DA0606D54A
:1020A00001681A4C8A682240846B22438A609A062F
:1020B00006D50168164C8A682240C46B22438A60A8
:1020C0005A0610D50168134D4A68046C2A40224311
:1020D0004A6080225203944205D14A680E4C224045
:1020E000446C22434A601B0606D502680B495368BC
:1020F0000B40816C0B43536030BDC046FFFFFDFFBA
:10210000FFFFFEFFFFFFFBFFFF7FFFFFFFEFFFFF74
:10211000FFDFFFFFFFFFEFFFFFFF9FFFFFFFF7FF67
:10212000F8B504000E0015001F002268D369334083
:102130009B1B59424B41AB4201D000201BE0069B48
:102140000133F3D0FEF7BEF9069BC01B834201D3D7
:10215000002BEAD1236808491A6803200A401A6054
:102160009A68A331FF318A439A6020236367A3678B
:10217000002370342370F8BD5FFEFFFFF0B587B019
:102180000593436F04000D0017000220202B49D156
:102190000138002946D0002A44D08023A2685B0180
:1021A0009A4204D12369002B01D101423AD1230084
:1021B00070331A780220012A34D0012200261A70C6
:1021C0002123E6676367FEF77DF9230050331F8004
:1021D000023303931F808023A26804905B019A421C
:1021E00004D12369B34201D12E001D0023005233D4
:1021F0001A88059B92B20093049B002A0AD14021C1
:102200002000FFF78DFF00280BD12023703463607E
:10221000207007E0002280212000FFF781FF0028C6
:1022200002D0032007B0F0BD2268002D0BD1338807
:102230000236DB05DB0D9362039B039A1B88013B8F
:102240009BB21380D2E72B7801359362F4E700004C
:1022500073B500260400C667FEF734F9236805004D
:102260001B681B0715D423681B685B070AD58021F0
:102270000E4B00220093C9032B002000FFF750FFF4
:10228000002811D1202300206367A36770342070D9
:102290000BE08021054B32000093890303002000EE
:1022A000FFF73EFF0028DED0032076BDFFFFFF01D1
:1022B00010B5041E01D1012010BD436F002B04D1C5
:1022C00002007032137000F023FF242301212268E2
:1022D0006367136820008B431360FFF79BFD0128A1
:1022E000E9D0636A002B02D02000FFF7B1FE23681B
:1022F00007495A6820000A402A215A609A688A438E
:102300009A60012219680A431A60FFF7A1FFD3E718
:10231000FFB7FFFF7047000070B5FA250A4CAD000B
:102320002B00132209492000FFF728FF2B0013225E
:1023300007492000FFF722FF2B0034220549200027
:10234000FFF71CFF70BDC0467C0700201300002073
:102350000000002026000020F7B533490622684619
:1023600000F0AEFF31496846FDF7CEFE002801D0EF
:102370000020FEBD03002E492E4D2F4E2F4F0A7810
:102380000A2A1CD02C2A03D1002001330131F6E7A0
:102390002B4C022B0FD0032B02D13A540130F5E71E
:1023A000042B01D13254F9E7052B01D12A54F5E76A
:1023B000062B02D1234C2254F0E7062BE6DD214EFA
:1023C0003378302BD4D000231B4A1F4C93721C4906
:1023D000184A1A4F20004B727B705370737000F0D4
:1023E0008DFF1A4D2000290000F07BFF39002000EE
:1023F00000F077FF2900200000F073FF0E49200055
:1024000000F06FFF2900200000F06BFF0949200059
:1024100000F067FF2900200000F063FF310020007A
:1024200000F05FFF0120A4E781050020423300088F
:1024300087050020F808002049080020FA0800203D
:1024400056080020540800202E08002049330008B8
:1024500073B56B469D1D80235B4218436B46287005
:10246000A020DE1D317000221021C005FEF770F99A
:10247000FA230F4C9B00012229002000FEF75CFF8D
:102480002000FFF7ADF902000128F9D1FA2331004D
:102490009B002000FEF750FF2000FFF7A1F902008B
:1024A0000128F9D1A0201021C005FEF751F973BD14
:1024B000600800207F23F7B5A02518406B46002256
:1024C000ED05987110212800FA27DC1DDA71FEF75E
:1024D0003FF969460A4EBF003B0030000122063139
:1024E000FEF72AFF3B00210030000122FFF7D2F85F
:1024F000280001221021FEF72BF92078FEBDC046EE
:1025000060080020F7B50600A0206B4600220F00EF
:10251000C0051021DD1DDA71FEF71AF9FA230D4C02
:102520009B00012229002000FEF706FFFA233A0053
:102530009B0031002000FFF7ADF82000FFF750F9B5
:1025400002000128F9D1A0201021C005FEF700F9F2
:10255000F7BDC04660080020012110B50800FFF754
:1025600077FFFF211220FFF773FF1220FFF7A2FF72
:10257000041E11D11020FFF79DFF01000D20FFF771
:1025800067FF1320FFF796FF81B20848FFF7BAFFF5
:1025900021000D20FFF75CFF05210120FFF758FF08
:1025A00000214020FFF754FF10BDC04684060020E4
:1025B000F0B585B002AB9C1D8023019200225B42E6
:1025C000184302ABDE1D019B0F0020703270934256
:1025D0001CD0A0201021C005FEF7BAF8FA23144D34
:1025E0009B00012221002800FEF7A6FE2800FFF72D
:1025F000F7F80128FAD13C00019AE31B9A4207DC64
:10260000A02001221021C005FEF7A2F805B0F0BD00
:10261000237801223370FA2331009B002800FEF753
:102620008BFE2800FFF7DCF80128FAD10134E3E73C
:102630006008002070B50C00012105000800FFF7BC
:1026400007FF00210D20FFF703FF1C4B0020197826
:10265000FFF7FEFE1A4B00201978FFF7F9FE194B21
:1026600000201978FFF7F4FE174B00201978FFF7C8
:10267000EFFE220029000020FFF79AFF211DC9B2BA
:102680002220FFF7E5FEFF211220FFF7E1FE0321E4
:102690000120FFF7DDFE40210800FFF7D9FE1220E0
:1026A000FFF708FF0828FAD101210800FFF7D0FE44
:1026B000FF211220FFF7CCFE70BDC0465B0000205A
:1026C0005A0000207D0500207C05002010B5314C0B
:1026D000002201212000FEF73BF80A20FDF7F8FE5A
:1026E000012220001100FEF733F80A20FDF7F0FE6A
:1026F00080210120FFF7ACFE00210E20FFF7A8FE8D
:1027000000210F20FFF7A4FE72211D20FFF7A0FE7D
:1027100074211E20FFF79CFE04212620FFF798FE5F
:1027200000212020FFF794FE08212120FFF790FED2
:102730006C210620FFF78CFE80210720FFF788FE22
:1027400000210820FFF784FE04214D20FFF780FEC2
:1027500088210920FFF77CFEE4210620FFF778FEA0
:10276000C0210720FFF774FE00210820FFF770FE4C
:1027700007214D20FFF76CFE8F210920FFF768FE2F
:1027800005210120FFF764FE00214020FFF760FED5
:1027900010BDC0460004005010B59CB03822002186
:1027A0000EA800F096FD14220021684600F091FD6D
:1027B0002422002105A800F08CFD1449144A0B685E
:1027C00000241A4080231B0113430B6010230E9337
:1027D0000F3B1593A0230EA81B0217931694189471
:1027E000FEF7A4F80F232100684600930194029499
:1027F00003940494FEF71EFB092305A8059308948F
:102800000B94FEF7EFFB1CB010BDC04600700040FB
:10281000FFE7FFFFF0B58FB007ADFDF737FEFFF71D
:10282000BBFF14220021280000F053FD0420B04B10
:102830000226D96A80240143D9620121DA6A24027E
:1028400002400292029ADA6AAA480A43DA62DA6A13
:102850000A400392039ADA6A21003243DA62DB6AA1
:10286000002233400493049BFDF772FFA020012255
:102870001021C005FDF76CFF012221219E48FDF7C4
:1028800067FFA2210022C9019B48FDF761FF80215B
:10289000A02000224900C005FDF75AFF012307943C
:1028A0000024290093486B60AC60EC60FDF79AFE51
:1028B0000123A0200793914B2900C0056B60AC60F9
:1028C000FDF790FE8823A0205B000793103BFF3BA1
:1028D0002900C0056B60AC60EC60FDF783FE884B9F
:1028E00029000793012384486B60AC60EC60FDF71E
:1028F00079FE844B290080486B600796AC60FDF739
:1029000071FE220021000520FDF7F2FD0520FDF7F4
:102910001FFE10222100280000F0DBFC082221000D
:1029200005A800F0D6FC8023774EDB0533609D239D
:10293000DB01736064233000F360B4603461746160
:10294000FEF780FF802329005B0130000793FEF72C
:1029500095FF05A9300005940694FFF7BEF86B4873
:102960006B4B8226036080239B008361E93BFF3B26
:102970007600C361113B4660C3628460C460046139
:102980004461046244628462FEF796FC614F624BCC
:1029900038003B6096239B017B600C23BC607B610D
:1029A000FC603C61BC61FC613C627C62FFF780FCC6
:1029B0005A485B4B4660036080239B008361E93B80
:1029C000FF3BC361113BC3628460C4600461446126
:1029D000046244628462FEF76FFC524E524B300038
:1029E0003360E123DB0073600123B460F360346182
:1029F0007461B461F4613462FDF7BCFE2100300003
:102A0000FDF70EFF21003000FDF730FF00F01CF94C
:102A1000FFF782FCFFF75AFE7D2244493800FFF79A
:102A20008BF8012300937D2240493800FFF784F89A
:102A30003F4B1E78002E08D13E4C23780193002B8B
:102A40003DD0FFF789FD2670EDE700233A480122CB
:102A50001E0019008446354C501E205C242802D1EB
:102A6000A45C472C01D0002908D06146C85401332A
:102A7000DBB200992C2801D10136F6B201327E2A50
:102A800001D0072EE7D9FFF767FC002813D00021FB
:102A90002A4A535C6B5401311B29FAD12800FFF7F5
:102AA000C9FD05210098FFF7D3FC00214020FFF766
:102AB000CFFC00F04DFA00221D4B1A70B3E7204EF8
:102AC0003378002BAFD01F4C02212378002B08D085
:102AD0001D4800F075F86B461B7923700023337096
:102AE000A1E71A4800F06CF86B461B78F5E7C04682
:102AF00000100240000800500004005000002110A7
:102B00002151000000001110BC08002060080020C6
:102B1000003001407C07002000380140D40600202E
:102B2000003800403007002000540040FF0500201E
:102B30007F05002080050020810500202E08002050
:102B40007E050020FE0500205C0000205E000020C5
:102B5000802130B5202080240125064B09051A1D4F
:102B6000D467D067D167044A15701C60186019607B
:102B700030BDC04600E100E07F05002080230C4A04
:102B8000D367603BD36780231B05D367022809D135
:102B90000121084A1170084A136080231360603BCA
:102BA000136070470128F6D1044A1070F3E7C0465D
:102BB00004E100E08005002000E100E07E05002047
:102BC000F8B50F00802580210C4C06006D01200017
:102BD0000022C901FDF7BCFD290020000022FDF7FD
:102BE000B7FDFA233A0031009B000548FEF7A4FB2D
:102BF000290001222000FDF7ABFDF8BD00040050C4
:102C0000D4060020F8B50F00802580210C4C06006A
:102C10006D0120000122C901FDF79AFD2900200065
:102C20000022FDF795FDFA233A0031009B0005488C
:102C3000FEF782FB290001222000FDF789FDF8BD87
:102C400000040050D40600208021A02030B50122CD
:102C500085B04900C005FDF77BFD802108250122D4
:102C600049010F48FDF774FD0E4C2A00210002A80F
:102C700000F026FB6119022401A8220000F020FBCD
:102C8000290002A8FFF79CFF210001A8FFF798FF89
:102C900080210548C900FFF7B5FF05B030BDC0462B
:102CA00000040050243300086000002010B5802488
:102CB000E40001210348013CFFF7A4FF002CF8D1F8
:102CC00010BDC0467C060020F0B505000624022693
:102CD00089B003912A78002A60D01300163B634321
:102CE00011000193230041394B431000029300234C
:102CF000C9B230380491C1B205910499192907D895
:102D0000274902980918C95C06A8C154210019E096
:102D10000599092902D822490198F3E7252A06D105
:102D20001F498C461900D8316046415CECE73A2ACD
:102D300017D11B498C461900EA316046415C06A850
:102D4000C154310006A8185C039F38438446674687
:102D500006A81F540133062BCFD1FFF753FF0135CF
:102D6000B8E72E2A04D10E498C461900EC31E4E76D
:102D7000202A04D10A498C461900E431D4E7402ABC
:102D800004D107498C461900E431D6E721002A2AEC
:102D9000D8D103498C461900DE31C5E709B0F0BD32
:102DA00065040020F7B52223032500266A4628493A
:102DB00001AC1370567096700A312A00200000F0A2
:102DC0007FFAFFF773FF29006846FFF7F9FE290035
:102DD0002000FFF7F5FE31001E48FFF775FF0127C1
:102DE0006B465F709F707F2329006846A3706670F2
:102DF000FFF7E6FE29002000FFF7E2FE3900164843
:102E0000FFF762FF6A4602232900537093706846F9
:102E10007D33A3706670FFF7D3FE29002000FFF713
:102E2000CFFE31000D48FFF74FFF6B465D709D7080
:102E30007F2329006846A3706670FFF7C1FE290052
:102E40002000FFF7BDFE31000548FFF73DFFF7BD4D
:102E5000243300084B33000861330008773300083F
:102E60007D330008F0B51F000025222387B00191B3
:102E70003649029205AC04AA13705570957006008D
:102E800003220A31200000F01BFA3B78312B29D1B4
:102E90001F3B032104A8A370FFF792FE032120002B
:102EA000FFF78EFE29003000FFF70EFF21230321DC
:102EB000637004A81133A370FFF782FE0321200082
:102EC000FFF77EFE29000198FFF7FEFE6123032134
:102ED000637020001833A370FFF772FE2900029878
:102EE000FFF7F2FE3B780393322B2CD1032504AB82
:102EF00000275D709D701223290004A8A3706770DD
:102F0000FFF75EFE29002000FFF75AFE390030006F
:102F1000FFF7DAFE212363706B461B7B290020003C
:102F2000A370FFF74DFE39000198FFF7CDFE412356
:102F30002900637020001833A370FFF741FE3900A9
:102F40000298FFF7C1FE07B0F0BDC0462433000869
:102F500070B51C4C2378002B03D0FFF723FF002310
:102F60002370194CA378392B29D16378392B23D1BD
:102F700023783022392B1CD1227062703023134DFC
:102F8000A3702378124E6B7063782200AB70A37825
:102F90002100EB703123200033703300FFF762FF14
:102FA00032232A003370210033002000FFF75AFF3C
:102FB00070BD01332370E0E701336370DEE7013356
:102FC000DDE7C046570500205305002060040020BF
:102FD000580500200122054B596B0A435A63802291
:102FE000996B52050A439A637047C046001002402D
:102FF00010B5040086B01422002101A800F069F980
:10300000104B22689A421AD102210F4C0F48E26AF3
:103010000A43E262E36A03220B400093009BC02351
:103020000193AE3B029301A9113B039304920593D4
:10303000FDF7D8FA8023A26B9B031343A36306B06A
:1030400010BDC04600540040001002400004005073
:1030500010B5040088B01422002103A800F039F94B
:1030600023681C4A93421AD180221B4B5201596B90
:10307000A0200A4301215A63DA6AC0050A43DA62D2
:10308000DB6A0B400193019BE0230393DE3B049337
:103090005B18069303A9FDF7A5FA08B010BD0F4A07
:1030A0009342FAD180220C4BD201996B0C480A430F
:1030B0009A630222D96A1143D962DB6A03A91340D9
:1030C0000293029BA0231B02039303230492069303
:1030D000E1E7C046003001400010024000380040E7
:1030E000000400508023026810B5DB059A420CD121
:1030F0000123064A0F20916B0B43936300221100BA
:10310000FDF7F6F90F20FDF723FA10BD001002407D
:1031100010B5040086B01422002101A800F0D9F8EF
:10312000144B22689A4223D18022134BD201596B4F
:10313000A0200A4301215A63DA6AC0050A43DA6211
:10314000DB6A0B400093009BC023DB00019302234A
:1031500002935B1804935B1801A90593FDF742FAEB
:1031600000221B201100FDF7C3F91B20FDF7F0F929
:1031700006B010BD00380140001002407047FEE765
:103180007047704710B5FDF795F910BD10B50120D7
:10319000FDF7E4FA0220FDF7E1FA10BD10B5024890
:1031A000FEF713FC10BDC046BC08002010B5024855
:1031B000FEF788FD10BDC0467C070020802010B5BA
:1031C0000002FDF7CBFA10BD8022104B52001968A7
:1031D0000A431A60DA680E490A40DA601A680D4933
:1031E0000A4001211A609A688A439A601A680A495B
:1031F0000A401A60DA6809490A40DA6000221A6156
:103200008022074B12059A607047C04600100240AA
:103210000C40FF88F6FFF6FEFFFFFBFFFFFF02FFFB
:1032200000ED00E00D488546002103E00C4B5B58A3
:10323000435004310B480C4B42189A42F6D30B4AC8
:1032400002E0002313600432094B9A42F9D3FFF7DE
:10325000BBFF00F011F8FFF7DDFAFEE700200020C9
:10326000C833000800000020600500206005002031
:10327000FC080020FEE7000070B500260C4D0D4C48
:10328000641BA410A64209D1002600F03FF80A4DA5
:103290000A4C641BA410A64205D170BDB300EB58C4
:1032A00098470136EEE7B300EB5898470136F2E74E
:1032B000C0330008C0330008C0330008C43300081E
:1032C000002310B59A4200D110BDCC5CC454013328
:1032D000F8E703008218934200D170471970013358
:1032E000F9E7020010B51378002B05D1CC5CD4545B
:1032F0000133002CFAD110BD0132F4E7031C0A7827
:1033000001311A700133002AF9D17047F8B5C0466F
:10331000F8BC08BC9E467047F8B5C046F8BC08BC6F
:043320009E4670470E
:10332400A83FD3002010AFACC8A121007F01040244
:103334000800101010041010100210101008244778
:1033440050474741002C00202020402A40202020C4
:103354002025202020202020202020200020202084
:103364002020202020202020202020202020202059
:10337400202000544F544F2000202020402A402079
:10338400202020252020202020404D2020202020E7
:10339400000000000000000000010203040607080A
:1033A400090000000001020304030406080C1018BD
:0433B40020300000C5
:0833B800D0CEFF7F01000000F0
:0433C000E900000818
:0433C400C10000083C
:1033C80024504D544B3232302C313030302A314673
:1033D8000D0A0024504D544B3235312C39363030DB
:1033E8002A31370D0A0024504D544B3331342C30D8
:1033F8002C302C302C312C302C302C302C302C30E4
:103408002C302C302C302C302C302C302C302C30D4
:103418002C302C302A32390D0A00FFFF81FF810F32
:10342800000000C0FEFEFE0E0E7EFCF8C00000008C
:1034380000000000000000000000C0F8FC7E0E0E36
:10344800FEFEFEC0000000000000000000000000BA
:1034580000FC3FFF0000000000000000000000002A
:1034680000000000000000000000FEFEFEFEFE0E50
:103478000E0E0E0E0E0E0E0E0E1E1E3CFCF8F0E08A
:10348800000000000000000000F0F8FCFC3E1E1EDA
:103498000E0E0E0E0E0E0E0E0E0E0E0E0E0E0E0052
:1034A800000000FFFFFF0F000000030F7FFEF0C0C9
:1034B80000000000000000C0F0FE7F0F03000000C5
:1034C8000FFFFFFF00000000000000000000008068
:1034D800FE030007FC0000000000000000000000E0
:1034E80000000000000000000000FFFFFFFFFF8059
:1034F80080808080808080808080C0E0FFFF7F3F68
:103508000000000000000000000F3F7FFFF8F0F00F
:10351800E0E0E0C0C0C0C080808000000000000083
:10352800000000FFFFFF00000000000000073FFF51
:10353800FFF0800080F0FFFF3F0700000000000060
:1035480000FFFFFF00000000000000000000703FC7
:10355800000000003FC00000000000000000000064
:1035680000000000000000000000FFFFFFFFFF0751
:103578000707070707070707070F7FFDF0F0C000D9
:103588000000000000000000000000000000010131
:103598000101010303030307070F1FFFFEFCF000EF
:1035A8000000007F7F7F0000000000000000000195
:1035B80007070706070707010000000000000000D2
:1035C800007F7F7F0080F8E00000000000F00F001F
:1035D8000000000000FF00000000000000000000E4
:1035E80000000080F03CF0C00000FFFFFFFFFF007C
:1035F8000000000000000000000000031F7F7F7E25
:10360800780000000000000000007070707070709A
:103618007070707070707078787C3E3F3F1F030048
:103628000C0C0C0C0C0C0C0C0C0C0C0C0C0C0C0CD2
:103638000C0C0C0C0C0C0C0C0C0C0C0C0C0C0C0CC2
:103648000C0C0C0C0C0700037C800000FC0700002D
:10365800000000000003FF00000000C0F0E0800050
:1036680080F01C070000000F1FF8E0000000C0F801
:103678000C0C0C0C0C0C0C0C0C0C0C0C0C0C0C0C82
:103688000C0C0C0C0C0C0C0C0C0C0C0C0C0C0C0C72
:103698000C0C0C0C0C0C0C0C0C0C0C0C0C0C0C0C62
:1036A8000000000000000000000000000000000012
:1036B8000000000000000000000000000000000002
:1036C80000000000000000000007F87F0100000073
:1036D8000000000000001FE0000000FF00010707D5
:1036E80007010000000000000000031F3C1F03004A
:1036F80000000000000000000000000000000000C2
:1037080000000000000000000000000000000000B1
:1037180000000000000000000000000000000000A1
:103728000000000000000000000000000000000091
:103738000000000000000000000000000000000081
:103748000000000000000000000001000000000070
:1037580000000000000000FF0000FC3F0000000027
:103768000000000000000000000000000000000051
:103778000000000000000000000000000000000041
:103788000000000000000000000000000000000031
:103798000000000000000000000000000000000021
:1037A8000000000000000000000000000000000011
:1037B8000000000000000000000000000000000001
:1037C80000000000000000000000000000000000F1
:1037D8000000000000000001FFFC0F0000000000D6
:1037E80000000000000000000000000000000000D1
:1037F80000000000000000000000000000000000C1
:1038080000000000000000000000000000000000B0
:1038180000000000000000000000000000000000A0
:103828004E303030007E0909097E007F494949360B
:10383800003E41414122007F4141221C007F49490D
:103848004941007F09090901003E41414938007F8B
:103858000808087F0041417F41410031413F010193
:10386800007F08142241007F40404040007F02143E
:10387800027F007F0408107F003E4141413E007FE7
:1038880009090906003E4151215E007F09192946B0
:103898000026494949320001017F0101003F4040AB
:1038A800403F001F2040201F003F4030403F006342
:1038B8001408146300030478040300615149454364
:1038C800003E5149453E0044427F4040004261511C
:1038D8004946002249494936001814127F10002F22
:1038E80049494931003E49494932000301710907F4
:1038F80000364949493600264949493E0022100800
:1039080004220006196219060000000000000022C7
:10391800004000303030000131000000000020007D
:040000050800322598
:00000001FF
